:020000040800F2
:1000000018040020AD010008211300085512000853
:100010001D130008B9020008C11400080000000008
:100020000000000000000000000000009513000820
:10003000BD0200080000000091130008ED13000845
:10004000C7010008C7010008C7010008C701000870
:10005000C7010008C7010008C7010008C701000860
:10006000C7010008C7010008C7010008C701000850
:10007000C7010008C7010008C7010008C701000840
:10008000C7010008C7010008C70100080000000000
:10009000000000000000000000000000C701000890
:1000A000C7010008C7010008C7010008C701000810
:1000B000C7010008C7010008C7010008C701000800
:1000C000C7010008C7010008C7010008C7010008F0
:1000D000C7010008C7010008C701000800000000B0
:1000E000C7010008C7010008C701000800000000A0
:1000F000000000000000000000000000C701000830
:1001000000000000C7010008C7010008C70100087F
:1001100000000000000000000000000000000000DF
:10012000C7010008C7010008C7010008C70100088F
:10013000C7010008000000000000000000000000EF
:10014000000000000000000000000000C7010008DF
:10015000C7010008C7010008C7010008C70100085F
:10016000C7010008C70100080000000000000000EF
:10017000000000000000000000000000000000007F
:1001800000000000C701000800000000000000009F
:10019000C7010008C7010008DFF80CD000F07AF8AA
:1001A00000480047551500081804002006488047FD
:1001B00006480047FEE7FEE7FEE7FEE7FEE7FEE74C
:1001C000FEE7FEE7FEE7FEE7AD1400089901000830
:1001D0002DE9F05F0546002092469B46884606467C
:1001E000814640241BE0284641464746224600F00F
:1001F00041F853465A46C01A914110D31146184649
:10020000224600F028F82D1A67EB01084F462246D7
:100210000120002100F01FF817EB00094E41201EBD
:10022000A4F10104DFDC484631462A464346BDE8D6
:10023000F09FD2B201E000F8012B491EFBD27047BB
:100240000022F6E710B513460A4604461946FFF7A2
:10025000F0FF204610BD202A04DB203A00FA02F10C
:10026000002070479140C2F1200320FA03F31943A4
:1002700090407047202A04DB203A21FA02F0002146
:10028000704721FA02F3D040C2F1200291400843A6
:1002900019467047064C074D06E0E06840F0010340
:1002A00094E8070098471034AC42F6D3FFF778FF84
:1002B000F015000810160008FFE7FEE77047000081
:1002C00081B0EFF3108072B60090FFE7FEE7000008
:1002D00080B584B0039000F0FFF90290039801907C
:1002E0000198013048B1FFE740F20400C2F200007B
:1002F0000178019808440190FFE7FFE700F0ECF96E
:100300000299401A0199884201D2FFE7F6E704B04A
:1003100080BD00008BB00A900991002007900690E4
:1003200005900890FFE708980F2800F2A281FFE7E8
:1003300008990120884007900998006807990840AB
:10034000069006980799884240F08E81FFE7099849
:10035000406800F00300012807D0FFE709984068D3
:1003600000F0030002282FD1FFE70A98806805906B
:1003700008984100032000FA01F105988843059090
:100380000998C0680899490000FA01F105980843E6
:10039000059005980A9988600A9840680590089920
:1003A000012000FA01F105988843059009984068FA
:1003B000C0F30010089900FA01F105980843059070
:1003C00005980A994860FFE70998406800F0030023
:1003D000032818D0FFE70A98C068059008984100E4
:1003E000032000FA01F10598884305900998806878
:1003F0000899490000FA01F105980843059005980D
:100400000A99C860FFE70998406800F003000228D5
:1004100026D1FFE70A9808996FF0030202EA51011A
:100420000844006A0590089800F0070081000F203A
:1004300000FA01F105988843059009980069089928
:1004400001F00701890000FA01F1059808430590C1
:1004500005980A99089B02EA530211440862FFE7D3
:100460000A980068059008984100032000FA01F1FD
:100470000598884305900998406800F003000899A2
:10048000490000FA01F105980843059005980A997A
:100490000860099880798007002800F0E480FFE771
:1004A000FFE70020049043F64400C4F20200016814
:1004B00041F480410160006800F480400490049899
:1004C000FFE7089820F0030043F60801C4F2010199
:1004D00040580590089800F0030081000F2000FAB2
:1004E00001F10598884305900A980021C4F20201A1
:1004F000884203D1FFE70020039034E00A9840F2DD
:100500000041C4F20201884203D1FFE701200290BA
:1005100026E00A9840F60001C4F20201884203D1A5
:10052000FFE70220019018E00A9840F60041C4F26B
:100530000201884203D1FFE7032000900AE00A99F4
:1005400041F20002C4F202020720914208BF0420D7
:100550000090FFE700980190FFE701980290FFE705
:1005600002980390FFE70398C0B2089901F00301D5
:10057000890000FA01F1059808430590059808994B
:1005800021F0030143F60802C4F20102885043F649
:100590000840C4F201000068059006990598884358
:1005A000059009988079C006002805D5FFE70699CF
:1005B000059808430590FFE7059843F60841C4F203
:1005C0000101086043F60C40C4F201000068059088
:1005D0000699059888430590099880798006002837
:1005E00005D5FFE70699059808430590FFE70598AC
:1005F00043F60C41C4F20101086043F60440C4F222
:1006000001000068059006990598884305900998AF
:1006100080798007002805D5FFE7069905980843EB
:100620000590FFE7059843F60441C4F20101086014
:1006300043F60040C4F20100006805900699059851
:100640008843059009988079C00728B1FFE706998B
:10065000059808430590FFE7059843F60041C4F26A
:1006600001010860FFE7FFE7FFE708980130089005
:1006700059E60BB07047000082B00190ADF802104F
:1006800001980069BDF80210084204D0FFE701207C
:100690008DF8010003E000208DF80100FFE79DF8D0
:1006A000010002B07047000082B00190ADF8021066
:1006B0008DF801209DF8010028B1FFE7BDF8020088
:1006C0000199886105E0BDF8020000040199886184
:1006D000FFE702B07047000040F21000C2F20000D5
:1006E0000068704740F20400C2F20000027840F255
:1006F0001001C2F200010868104408607047000051
:1007000080B543F60041C4F20201086840F400706D
:100710000860086840F480600860086840F48070F1
:100720000860032000F080F80F2000F005F800F0CA
:100730003BF8002080BD000080B582B0009040F200
:100740000000C2F20000006840F20401C2F20001A1
:100750000A784FF47A71B1FBF2F1B0FBF1F000F0DE
:1007600071FD20B1FFE701208DF8070018E0009827
:100770000F280DD8FFE700994FF0FF30002200F05E
:1007800039F8009840F20801C2F20001086003E065
:1007900001208DF8070003E000208DF80700FFE737
:1007A0009DF8070002B080BD82B0FFE700200190F5
:1007B00043F64400C4F20200016841F48041016044
:1007C000006800F4804001900198FFE7FFE70020F7
:1007D000009043F64000C4F20200016841F08051ED
:1007E0000160006800F0805000900098FFE702B0C0
:1007F0007047000080B586B08DF817000491039211
:100800000020029000F05EFE02909DF9170001901A
:1008100002980499039A00F085FD0146019800F0C2
:1008200059FE06B080BD000080B582B001900198ED
:1008300000F072FE02B080BD80B584B002900191DC
:10084000029820B9FFE701208DF80F0021E10198FF
:1008500043F60041C4F20201096801F00701884231
:1008600012D9FFE7019943F60040C4F2020001707B
:10087000006800F007000199884204D0FFE70120DA
:100880008DF80F0005E1FFE7029800788007002847
:100890002AD5FFE7029800784007002809D5FFE72E
:1008A00043F60801C4F20201086840F4E050086011
:1008B000FFE7029800780007002809D5FFE743F614
:1008C0000801C4F20201086840F460400860FFE7D4
:1008D00043F60801C4F20201086820F0F000029A11
:1008E000926810430860FFE702980078C00700286C
:1008F0006ED0FFE702984068012811D1FFE743F668
:100900000000C4F20200006800F400310020B0EBE7
:10091000514F04D1FFE701208DF80F00B9E02CE022
:1009200002984068022805D0FFE702984068032833
:1009300011D1FFE743F60000C4F20200006800F0A6
:1009400000710020B0EB516F04D1FFE701208DF85A
:100950000F009EE010E043F60000C4F202000068C1
:1009600000F002010020B0EB510F04D1FFE701209D
:100970008DF80F008DE0FFE7FFE743F60801C4F2B2
:100980000201086820F00300029A526810430860D0
:10099000FFF7A2FE0090FFE743F60800C4F2020052
:1009A000006800F00C0002994968B0EB810F0ED08E
:1009B000FFE7FFF791FE0099401A41F28931884222
:1009C00004D3FFE703208DF80F0062E0E4E7FFE7C0
:1009D000019843F60041C4F20201096801F00701E1
:1009E000884212D2FFE7019943F60040C4F20200A8
:1009F0000170006800F007000199884204D0FFE709
:100A000001208DF80F0044E0FFE7029800784007CE
:100A100000280CD5FFE743F60801C4F2020108687C
:100A200020F4E050029AD26810430860FFE7029871
:100A30000078000700280DD5FFE743F60801C4F24F
:100A40000201086820F46040029A126940EAC2007C
:100A50000860FFE700F022F843F60801C4F2020143
:100A60000968C9B20A0941F2E051C0F60001895C87
:100A7000C84040F20001C2F20001086040F20800E4
:100A8000C2F200000068FFF757FE00208DF80F004B
:100A9000FFE79DF80F0004B080BD000080B586B070
:100AA0000020059004900390029043F60800C4F2E1
:100AB0000200006800F00C000146019140B1FFE720
:100AC000019804280AD0FFE7019808280CD04FE0CD
:100AD00042F20040C0F2F40002904FE047F64000BE
:100AE000C0F27D10029049E043F60400C4F2020017
:100AF000016801F03F01059100684002002813D50C
:100B0000FFE743F60400C4F202000068C0F3881057
:100B100047F64001C0F27D11A0FB0101059A0023B8
:100B2000FFF756FB049012E043F60400C4F2020003
:100B30000068C0F3881042F20041C0F2F401A0FB4B
:100B40000101059A0023FFF743FB0490FFE743F6FA
:100B50000400C4F20200006800F44031022000EBFF
:100B6000D130039004980399B0FBF1F0029005E0B6
:100B700042F20040C0F2F4000290FFE7029806B093
:100B800080BD000080B586B00490049820B9FFE7CE
:100B900001208DF8170050E304980078C007002862
:100BA00000F0A580FFE743F60800C4F202000068E9
:100BB00000F00C00042813D0FFE743F60800C4F24D
:100BC0000200006800F00C0008281ED1FFE743F681
:100BD0000400C4F2020000684002002815D5FFE7B7
:100BE00043F60000C4F20200006800F40031002067
:100BF000B0EB514F08D0FFE70498406820B9FFE7F9
:100C000001208DF8170018E370E0FFE704984068B2
:100C1000B0F5803F09D1FFE743F60001C4F20201BD
:100C2000086840F48030086020E004984068B0F51F
:100C3000A02F0DD1FFE743F60001C4F202010868BE
:100C400040F480200860086840F4803008600CE0C0
:100C500043F60001C4F20201086820F48030086005
:100C6000086820F480200860FFE7FFE7FFE70498AA
:100C70004068E8B1FFE7FFF72FFD0390FFE743F679
:100C80000000C4F20200006800F400310020B0EB64
:100C9000514F0CD1FFE7FFF71FFD0399401A65285C
:100CA00004D3FFE703208DF81700C6E2E7E71CE056
:100CB000FFF712FD0390FFE743F60000C4F20200C5
:100CC000006800F400310020B0EB514F0CD0FFE77A
:100CD000FFF702FD0399401A652804D3FFE70320BC
:100CE0008DF81700A9E2E7E7FFE7FFE7FFE70498C1
:100CF00000788007002840F19680FFE743F608005F
:100D0000C4F20200006810F00C0F13D0FFE743F6A6
:100D10000800C4F20200006800F00C0008282CD182
:100D2000FFE743F60400C4F2020000684002002816
:100D300023D4FFE743F60000C4F20200006800F08D
:100D400002010020B0EB510F09D0FFE70498C06802
:100D5000012804D0FFE701208DF817006DE243F66B
:100D60000001C4F20201086820F0F800049A126938
:100D700040EAC2000860FFE754E00498C06870B31E
:100D8000FFE70021C4F2472101200860FFF7A4FC1F
:100D90000390FFE743F60000C4F20200006800F091
:100DA00002010020B0EB510F0CD1FFE7FFF794FCDC
:100DB0000399401A032804D3FFE703208DF8170096
:100DC0003BE2E7E743F60001C4F20201086820F0C5
:100DD000F800049A126940EAC200086021E000218C
:100DE000C4F2472100200860FFF776FC0390FFE77C
:100DF00043F60000C4F20200006800F00201002087
:100E0000B0EB510F0CD0FFE7FFF766FC0399401AD7
:100E1000032804D3FFE703208DF817000DE2E7E76E
:100E2000FFE7FFE7FFE704980078000700284BD5AD
:100E3000FFE70498406918B3FFE740F68061C4F209
:100E4000472101200860FFF747FC0390FFE743F6C6
:100E50007400C4F20200006800F002010020B0EB50
:100E6000510F0CD1FFE7FFF737FC0399401A032815
:100E700004D3FFE703208DF81700DEE1E7E722E067
:100E800040F68061C4F2472100200860FFF724FC8F
:100E90000390FFE743F67400C4F20200006800F01C
:100EA00002010020B0EB510F0CD0FFE7FFF714FC5C
:100EB0000399401A032804D3FFE703208DF8170095
:100EC000BBE1E7E7FFE7FFE7049800784007002869
:100ED00040F1CE80FFE700208DF8070043F6400088
:100EE000C4F202000068C000002815D4FFE7FFE745
:100EF0000020009043F64000C4F20200016841F077
:100F000080510160006800F0805000900098FFE779
:100F100001208DF80700FFE747F20000C4F200004F
:100F20000068C005002822D4FFE747F20001C4F2A0
:100F30000001086840F480700860FFF7CDFB039063
:100F4000FFE747F20000C4F200000068C005002877
:100F50000CD4FFE7FFF7C0FB0399401A032804D322
:100F6000FFE703208DF8170067E1EAE7FFE7FFE7F7
:100F700004988068012809D1FFE743F67001C4F2A4
:100F80000201086840F0010008601FE004988068D2
:100F900005280DD1FFE743F67001C4F2020108688D
:100FA00040F004000860086840F0010008600CE0B0
:100FB00043F67001C4F20201086820F001000860E5
:100FC000086820F004000860FFE7FFE7FFE70498E7
:100FD0008068F8B1FFE7FFF77FFB0390FFE743F678
:100FE0007000C4F20200006800F002010020B0EBC3
:100FF000510F0ED1FFE7FFF76FFB0399401A41F243
:101000008931884204D3FFE703208DF8170014E1EB
:10101000E5E71EE0FFF760FB0390FFE743F6700093
:10102000C4F20200006800F002010020B0EB510F92
:101030000ED0FFE7FFF750FB0399401A41F28931C8
:10104000884204D3FFE703208DF81700F5E0E5E7B9
:10105000FFE79DF80700012809D1FFE743F64001AB
:10106000C4F20201086820F080500860FFE7FFE743
:1010700004988069002800F0DC80FFE743F6080050
:10108000C4F20200006800F00C00082800F085801F
:10109000FFE70498806902285CD1FFE76021C4F271
:1010A000472100200860FFF717FB0390FFE743F696
:1010B0000000C4F20200006800F000710020B0EBF4
:1010C000516F0CD0FFE7FFF707FB0399401A032885
:1010D00004D3FFE703208DF81700AEE0E7E704999B
:1010E000C869D1F820C04B6A8A6A40EA0C0040EA1D
:1010F0008310D2034FF6FF739A43A2F58032104358
:10110000C96A40EA016043F60401C4F202010860C2
:101110006021C4F2472101200860FFF7DDFA039047
:10112000FFE743F60000C4F20200006800F000711F
:101130000020B0EB516F0CD1FFE7FFF7CDFA039918
:10114000401A032804D3FFE703208DF8170074E04A
:10115000E7E721E06021C4F2472100200860FFF7A3
:10116000BBFA0390FFE743F60000C4F202000068F8
:1011700000F000710020B0EB516F0CD0FFE7FFF7DB
:10118000ABFA0399401A032804D3FFE703208DF834
:10119000170052E0E7E7FFE74AE00498806901287A
:1011A00004D1FFE701208DF8170046E043F6040064
:1011B000C4F202000068029004988069012831D0CE
:1011C000FFE7029800F480000499C969884229D198
:1011D000FFE7029800F03F000499096A884221D194
:1011E000FFE7029847F6C07108400499496AB0EBDE
:1011F000811F17D1FFE7029800F440300499896AF3
:10120000C9034FF6FF729143A1F58031884209D19D
:10121000FFE7029800F070600499C96AB0EB016FB3
:1012200004D0FFE701208DF8170006E0FFE7FFE795
:10123000FFE700208DF81700FFE79DF8170006B0C4
:1012400080BD000080B582B00190019800F0A4F844
:1012500002B080BDFFE7FEE780B58EB000200D90A4
:101260000C900B900A900990FFE70020089043F63D
:101270003000C4F20200016841F00401016000681E
:1012800000F0040008900898FFE7FFE700200790AF
:1012900043F63000C4F20200016841F080010160B1
:1012A000006800F0800007900798FFE7FFE7002044
:1012B000069043F63000C4F20200016841F00101DB
:1012C0000160006800F0010006900698FFE740F614
:1012D0000000C4F2020002904FF40051019100227C
:1012E0000392FFF7E1F9019A02980399099201220A
:1012F00004920A920B910C9109A90591FFF70AF843
:10130000039A0498059909900A920B900020C4F260
:101310000200FEF7FFFF0EB080BD0000FFE7FEE712
:10132000FFE7FEE788B0079006910592079800F066
:10133000070004900498C0F10700052803D3FFE7D5
:101340000420019004E00498C0F107000190FFE739
:101350000198039004980430062803D8FFE7002082
:10136000009003E0049803380090FFE70098029093
:1013700006980399012202FA01F101390840029B03
:10138000984005999A40013A1140084308B07047C7
:10139000704700007047000080B582B00090009850
:1013A0000138B0F1807F03D3FFE70120019019E0FD
:1013B000009801384EF21401CEF2000108604FF09F
:1013C000FF300F2100F086F84EF21801CEF2000136
:1013D000002008604EF21002CEF2000207211160D8
:1013E0000190FFE7019802B080BD000080B5FFF7D3
:1013F00079F980BD80B594B008A83021FEF720FFB0
:10140000002007900690059004900390FFE70020CD
:10141000029043F64000C4F20200016841F080519E
:101420000160006800F0805002900298FFE7FFE73B
:101430000020019047F20000C4F20000016841F46E
:1014400040410160006800F4404001900198FFE7CE
:101450000220089001210B9110210C910E90002187
:101460000F91082110916421119112900420139082
:1014700008A8FFF787FB18B1FFE7FEF721FFFFE79A
:101480000F20039002200490002005904FF480511B
:101490000691079003A80321FFF7CEF918B1FFE7E3
:1014A000FEF70EFFFFE714B080BD00004EF6885136
:1014B000CEF20001086840F4700008607047000038
:1014C000FFE7FEE74EF60C50CEF200000068C0F3D6
:1014D0000220704782B08DF8070000919DF9070047
:1014E00000280AD4FFE7009800019DF907104EF28A
:1014F0000042CEF2000288540BE0009800019DF8F3
:10150000071001F00F014EF61452CEF2000288547B
:10151000FFE702B07047000083B00290029800F02D
:10152000070000904EF60C51CEF2000108680190C1
:1015300001984FF6FF02104001900198009A40EA8E
:1015400002200022C0F2FA52104301900198086074
:1015500003B0704780B584B000200390FFF7D0F847
:10156000FFF748FFFFF778FEFFE70020C4F2020014
:101570000121FFF781F8012801D1FFE7FFE70020F3
:10158000C4F202000121FFF777F8C8B9FFE740F67F
:101590000000C4F2020000904FF4005101910122BA
:1015A000FFF782F84FF4FA700290FEF791FE009870
:1015B00001990022FFF778F80298FEF789FEFFE70D
:1015C000D3E702E008C8121F08C1002AFAD1704709
:1015D0007047002001E001C1121F002AFBD17047B3
:1015E00000000000000000000102030406070809D3
:1015F000101600080000002010000000C2150008AE
:10160000201600081000002008040000D215000871
:101610000024F400010000001000000000000000A1
:040000050800019955
:00000001FF
