:020000040800F2
:10000000280D0020B1010008DB0C0008610C00087D
:10001000D90C0008F5020008C1110008000000001A
:100020000000000000000000000000000D100008AB
:10003000F702000800000000DD0C00080F100008A7
:10004000CB010008CB010008CB010008CB01000860
:10005000CB010008CB010008CB010008CB01000850
:10006000CB010008CB010008CB010008CB01000840
:10007000CB010008CB010008CB010008CB01000830
:10008000CB010008CB010008CB01000800000000F4
:10009000000000000000000000000000CB0100088C
:1000A000CB010008CB010008CB010008CB01000800
:1000B000CB010008CB010008CB010008CB010008F0
:1000C000CB010008CB010008CB010008CB010008E0
:1000D000CB010008CB010008CB01000800000000A4
:1000E000CB010008CB010008CB0100080000000094
:1000F000000000000000000000000000CB0100082C
:1001000000000000CB010008CB010008CB01000873
:1001100000000000000000000000000000000000DF
:10012000CB010008CB010008CB010008CB0100087F
:10013000CB010008000000000000000000000000EB
:10014000000000000000000000000000CB010008DB
:10015000CB010008CB010008CB010008CB0100084F
:10016000CB010008CB0100080000000000000000E7
:10017000000000000000000000000000000000007F
:1001800000000000CB01000800000000000000009B
:10019000CB010008CB010008DFF810D000F098F880
:1001A00000480047F9140008AFF30080280D002034
:1001B0000648804706480047FEE7FEE7FEE7FEE701
:1001C000FEE7FEE7FEE7FEE7FEE7FEE7A510000814
:1001D000990100082DE9F05F0546002092469B46F4
:1001E00088460646814640241BE02846414647464D
:1001F000224600F05CF853465A46C01A914110D38B
:1002000011461846224600F043F82D1A67EB010804
:100210004F4622460120002100F03AF817EB000972
:100220004E41201EA4F10104DFDC484631462A4637
:100230004346BDE8F09F40EA01039B0703D009E075
:1002400008C9121F08C0042AFAD203E011F8013BC2
:1002500000F8013B521EF9D27047D2B201E000F81B
:10026000012B491EFBD270470022F6E710B513465A
:100270000A4604461946FFF7F0FF204610BD034624
:1002800011F8012B00F8012B002AF9D1184670470C
:10029000202A04DB203A00FA02F100207047914046
:1002A000C2F1200320FA03F3194390407047202A3B
:1002B00004DB203A21FA02F00021704721FA02F310
:1002C000D040C2F120029140084319467047000017
:1002D000064C074D06E0E06840F0010394E8070093
:1002E00098471034AC42F6D3FFF75AFF7815000850
:1002F00098150008FEE7704772B6FEE770B5044631
:1003000000F0FEF80546601C02D004480078044462
:1003100000F0F6F8401BA042FAD370BD00000020A8
:100320002DE9F84FDFF8B8A10022012403254FF092
:100330000F090AF1040BAAF1040E00BF0B6804FABE
:1003400002F63340B34273D10F7907F00307012F50
:1003500001D0022F16D187684FEA420805FA08FC3F
:1003600027EA0C07D1F80CC00CFA08FC4CEA070C81
:10037000C0F808C04768B7430E79C6F30016964028
:100380003E4346600E79F643B6070DD0C768560067
:1003900005FA06FC27EA0C07D1F808C00CFA06FC9F
:1003A0004CEA070CC0F80CC00E7906F00306022ECA
:1003B00010D1D60800EB8608D8F8206057074FEA1E
:1003C000D76C09FA0CF7BE430F6907FA0CF73743ED
:1003D000C8F8207006684FEA420C05FA0CF7BE43D5
:1003E0000F7907F0030707FA0CF7374307604E68E9
:1003F00016F4403F6DD03B4E376847F48047376076
:10040000366822F0030706F480460096364E07EB66
:10041000060CDCF8086897073F0F09FA07F826EA88
:100420000806DFF8C880404503D14FF000081EE001
:100430004FE0DFF8BC80404502D14FF0010816E0E4
:10044000DFF8B080404502D14FF002080FE0DFF83E
:10045000A880404502D14FF0030808E0DFF89C80F7
:10046000404502D14FF0040801E04FF0070808FAB8
:1004700007F848EA0608CCF80888DAF8006057461A
:10048000D1F804C09E435FEACC2C00D51E433E60E9
:10049000DBF800605F46D1F804C09E435FEA8C2C15
:1004A00000D51E433E60DEF800607746D1F804C0F8
:1004B0009E435FEA8C3C00D51E433E60084F083FD8
:1004C0003E68D1F804C09E435FEACC3C00D51E4391
:1004D0003E60521C102AFFF431AFBDE8F88F0000D7
:1004E000083C014044380240003001400000024016
:1004F0000004024000080240000C024000100240CC
:1005000001488068704700000000002002488168B0
:100510000278114481607047000000200B4810B53C
:10052000016841F400710160016841F4806101607B
:10053000016841F480710160032000F061F80F2030
:1005400000F006F800F024F8002010BD003C024046
:1005500070B50D4D04464FF47A712878B1FBF0F078
:100560000A490968B1FBF0F000F0FEFA48B9102C16
:1005700007D200222146501E00F022F800206C60B5
:1005800070BD012070BD0000000000200C000020A4
:100590000A4808B5016841F480410160006800F430
:1005A000804000900548001F016841F080510160C3
:1005B000006800F08050009008BD00004438024000
:1005C000F0B40E4B1B680C46C3F30223C3F10705BE
:1005D000042D00D90425191D072901D2002300E0AC
:1005E000DB1E012606FA05F1491E214099409E4076
:1005F000761E16403143F0BC00F05FBF0CED00E00A
:10060000064900F0070208684FF6FF03184040EA69
:100610000220034A10430860704700000CED00E020
:100620000000FA052DE9F0470E46050065D0DFF819
:100630001481D8F80000F7B200F00700B04207D2EA
:1006400088F80070D8F8000000F00700B04254D1DC
:1006500028683D4C810712D5400703D5206840F437
:10066000E05020602878000703D5206840F46040FF
:1006700020602068A96820F0F000084320602878F6
:10068000C0072DD0304968680839012812D00228E7
:1006900013D0032811D00968890700292DDA2168B1
:1006A00021F0030101432160FFF72AFF814641F257
:1006B000883A0EE009688903EFE709688901ECE7E9
:1006C000FFF71EFFA0EB0901514502D90320BDE849
:1006D000F0872068696800F00C00B0EB810FEFD163
:1006E000D8F80010404601F00701B14207D9077061
:1006F000006800F00700B04201D00120E7E7287849
:10070000400705D52068E96820F4E05008432060E0
:100710002878000706D52068296920F4604040EA5F
:10072000C100206000F038F82168084AC1F30311C5
:10073000515CC8400649086006480068FFF708FF9A
:100740000020C4E7003C0240083802405015000871
:100750000C000020040000200448054900680968D6
:10076000044AC1F38221515CC84070470C0000204C
:100770000838024060150008044805490068096807
:10078000044AC1F34231515CC84070470C0000205C
:100790000838024060150008154810B5006810F0D0
:1007A0000C02144813D01449042A0FD0082A0ED181
:1007B0000F4C241F2268236802F03F025B0207D51A
:1007C0002068C0F38810A0FB010106E0084610BDB8
:1007D0002168C1F38811A1FB00010023FFF7FAFC97
:1007E0002168C1F30141491C4900B0FBF1F010BD83
:1007F000083802400024F40040787D012DE9F84FCC
:1008000004006ED02078DFF84C93C007A9F10405EE
:100810004AD009F104000168C1F38101012908D01F
:100820000068C0F3810002280AD1D9F80000400214
:1008300006D52868800337D560680028E1D033E00A
:100840006068B0F5803F10D0B0F5A02F286810D0B8
:1008500020F480302860286820F4802028606068B8
:10086000A8B1FFF74DFE06460DE0286840F4803041
:10087000F4E740F480202860F7E700BFFFF740FE70
:10088000801B642873D828688003F7D50CE0FFF735
:1008900037FE064605E000BFFFF732FE801B6428E6
:1008A000F0D828688003F7D42078DFF8AC8280077E
:1008B0004FF0000A3ED5A748001D016811F00C0F4B
:1008C00008D00068C0F3810002280BD1D9F80000DD
:1008D000400207D42868800716D5E068012800D1B7
:1008E00012E033E1E068B8B10120C8F80000FFF77A
:1008F00007FE064605E000BFFFF702FE801B022848
:10090000C0D828688007F7D52868216920F0F8004A
:1009100040EAC10028600DE0C8F800A0FFF7F0FD34
:10092000064604E0FFF7ECFD801B02281FD828686C
:100930008007F7D42078000722D5864F8748616961
:10094000703771B101210160FFF7DAFD064604E05E
:10095000FFF7D6FD801B022809D838688007F7D535
:100960000EE0C0F800A0FFF7CBFD064605E082E0F0
:10097000FFF7C6FD801B02287DD838688007F7D4B2
:100980002078400768D5DFF8CCB100270BF13C0B8D
:10099000DBF80000C0000BD4DBF8001041F0805100
:1009A000CBF80010DBF80000012700F08050009029
:1009B0006B4E3068C00510D4306840F480703060F1
:1009C000FFF79EFD009005E0FFF79AFD0099401AA1
:1009D000022850D83068C005F6D55E4EA0686C3647
:1009E00001280FD00528306810D020F001003060B9
:1009F000306820F004003060A068B8B1FFF780FDD7
:100A000000900FE0306840F00100F4E740F004008F
:100A10003060F7E7FFF774FD0099411A41F2883022
:100A2000814266D830688007F4D50EE0FFF768FD94
:100A3000009007E0FFF764FD0099411A41F2883009
:100A4000814256D830688007F4D42FB1DBF800100B
:100A500021F08051CBF80010A069C8B33D49091DB1
:100A60000968C1F3810102294AD00228504607D003
:100A7000C8F8600000E03CE0FFF742FD04463BE0C0
:100A80004746C8F86000FFF73BFD064605E000BF9B
:100A9000FFF736FD801B02282BD828688001F7D489
:100AA000D4E907010843A16A2E4A490802EB014133
:100AB000626A41EA8211084394F82C1040EA01610D
:100AC000C9F8001001203866FFF71AFD044606E059
:100AD0003EE000BFFFF714FD001B022809D828687C
:100AE0008001F7D534E000BFFFF70AFD001B0228A4
:100AF00002D90320BDE8F88F28688001F4D427E0EC
:100B00000128F7D0D9F80000E26900F48001914291
:100B10001CD1226A00F03F01914217D147F6C07103
:100B2000626A0140B1EB821F10D1A26A4FF0FF331D
:100B300000F4403103EB5202B1EB024F06D194F8BE
:100B40002C1000F07060B0EB016F01D00120D1E7F4
:100B50000020CFE70438024000004742800E4742A1
:100B6000007000400000FFFF10B5401EB0F1807F14
:100B700001D3012010BD4FF0E02460610F21601708
:100B800000F09BFC0020A06107202061002010BD28
:100B900070B5040004D094F84100002510B106E0BF
:100BA000012070BD84F84050204600F023F8242036
:100BB00084F841002068C16821F40051C1602046DA
:100BC00000F078FA2068016921F490410161206801
:100BD000416921F02A0141612068C16841F4005156
:100BE000C1606564202084F8410084F84200656398
:100BF000002070BD10B586B0044614216846FFF78A
:100C000033FB14492068884221D11348002102682F
:100C100042F010020260006800F0100005900E48DB
:100C20001438026842F001020260006800F001001E
:100C300005904FF4C06000900220CDE9010103202F
:100C400003900720049069460448FFF769FB06B04B
:100C500010BD000000100140443802400000024076
:100C6000FEE700000D4808B5016841F0040101608D
:100C7000016801F004010091016841F08001016008
:100C8000016801F080010091016841F001010160FB
:100C9000006800F00100009008BD000030380240FC
:100CA0000C4810B50A4901604FF4E1314160002160
:100CB00081600C22C160C0E904128161C161FFF74B
:100CC00067FF002803D0BDE81040FFF715BB10BD3B
:100CD0000010014024040020FEE7FEE770470000FA
:100CE0002DE9F047154F0446DDF8209038781D4671
:100CF0001646884608B900F065FA3869A04219D945
:100D0000EFF31180202181F311880C4A04EB440198
:100D100002EBC10134B1C1F81880C1E907650022B6
:100D20008A624A62C0B280F31188C1F82C90002018
:100D3000BDE8F0874FF0FF30FAE700006C040020B8
:100D40002DE9F84304461F48007808B900F03AFA44
:100D5000FF2000258DF800004FF0FF39102C2DD218
:100D60001948184E005D8DF801001836EFF3118711
:100D7000202080F31188307DDFF84C8000F00300E4
:100D8000A8F1010802280CD0304600F04FFA0228E2
:100D90000FD388F8004002226946304600F06CFB11
:100DA00008E088F8004002226946304600F037FB30
:100DB00000E04D46F8B280F3118800E04D46284629
:100DC000BDE8F8836C040020110000202DE9F041FB
:100DD00007460B4815460E46007808B900F0F2F9B0
:100DE000EFF31184202080F311882A4631463846DB
:100DF00000F008F8E1B281F31188BDE8F08100004D
:100E00006C04002070B50E46144900EB400001EB65
:100E1000C0051446E86A183520B101280FD0022811
:100E200005D113E0284600F001FAA04201D20024C7
:100E300011E022463146284600F01EFB0BE0284612
:100E400000F0F4F9A042F4D20446F2E73146284615
:100E500000F0E5FA0446204670BD00006C04002056
:100E60000FB408B504A900916A46039900F003F88D
:100E700001B05DF814FB2DE9F04198B0064607A8D3
:100E8000029040200025CDE90305CDE905569046A6
:100E90000C4614F8011B002973D0252908D002A89C
:100EA00000F09EFA05980028F3DA18B0BDE8F0814A
:100EB000002001212278232A1ED02B2A19D02D2A86
:100EC00002D0302A08D102E040F0010001E040F0F9
:100ED0000200641C0029EDD100222178A1F1300329
:100EE0000A2B0CD202EB820201EB4202303A641C64
:100EF000F3E740F00400ECE740F00800E9E70023E6
:100F0000CFB22E2F0BD114F8011FA1F130070A2FF9
:100F100005D203EB830301EB4303303BF3E76C297A
:100F20000DD068290BD0702954D00BDC252916D0A0
:100F3000582931D063290CD0642913D114E014F856
:100F4000011FECE7732934D075291BD0782909D10A
:100F500022E0D8F80000011DC8F80010017802A8AE
:100F600000F03EFA641C9DE7D8F800100F1DC8F889
:100F700000700968CDE900200A2202A800F062F999
:100F8000F0E733E0D8F800100F1DC8F800700968CA
:100F9000CDE900200A2208E0D8F800100F1DC8F89B
:100FA00000700968CDE90020102202A800F0AEF917
:100FB000D8E7D8F80000011DC8F80010076817F836
:100FC000011B0029CED002A800F00AFA05980028DB
:100FD000F5DAC7E7D8F80000011DC8F8001001686D
:100FE0000820CDE9000503461022DEE70598002819
:100FF0007FF75BAF049820B1024607A93046FFF7A0
:10100000E5FEDDE90410084405904EE77047FFF760
:101010007DBA000030B593B030216846FFF724F95F
:1010200014210CA8FFF720F91C480024016841F0A6
:1010300080510160006800F08050119018480168EC
:1010400041F4404101600068022500F440401190E5
:101050000120039010200490009506950820CDE90A
:1010600007406420CDE9090504200B906846FFF78E
:10107000C5FB08B172B6FEE70F20CDE90C054FF4B1
:101080008050CDE90E4003210CA81094FFF7CAFA56
:10109000002801D072B6FEE713B030BD40380240E0
:1010A000007000400248016841F47001016070471F
:1010B00088ED00E070B5044600680169E26821F43B
:1010C0004051114301612169A068E26908436169E7
:1010D000114308432168CA6849F20C639A430243EA
:1010E000CA6020684169A26921F4407111434161DD
:1010F00031492068884202D03049884202D1FFF746
:101100003BFB01E0FFF728FBE2690023192164257E
:101110003226B2F5004F626828D0A0FB0101930F80
:101120009200FFF757F80146B0FBF5F06FF0180298
:10113000504301EB800006EB0010B0FBF5F000F02F
:10114000F002B1FBF5F002EB0012B1FBF5F06FF02D
:101150001803584301EB800006EB0010B0FBF5F0DC
:1011600000F00F0021681044886070BDA0FB0101F1
:1011700092185B41FFF72EF80146B0FBF5F0020133
:10118000B1FBF5F06FF01803584301EB800006EB5C
:10119000C000B0FBF5F000F0F80002EB4002B1FB3C
:1011A000F5F0584301EB800006EBC000B0FBF5F012
:1011B00000F00700D6E700000010014000140140D5
:1011C000FEE7000010B5124C03202061606111A001
:1011D000A06104F1A800E0614FF48060206200206B
:1011E000A06260620BA12166E06204F59561616610
:1011F00010212067C4E91A10606709A1E01DFFF7FC
:101200003EF808A12046FFF73AF82020A07110BD53
:101210006C0400205465726D696E616C0000000002
:101220005254540053454747455200000269C16873
:101230008A4203D88068401A104400E0501A401EC9
:10124000704700002DE9FC5F0E008146DDE90C4788
:10125000C6F1000098469346824600D40846012510
:1012600003E000BF90FBFBF06D1C5845FADAA8457F
:1012700000D9454624B1002E01DB780700D5641E55
:10128000B80702D5B8F1000F0FD0F8070DD164B13F
:10129000A5420AD220214846641E00F0A1F8D9F8E0
:1012A0000C000028F3DABDE8FC9FD9F80C000028F8
:1012B000F9DB002E02DA56462D2102E0780707D529
:1012C0002B21484600F08CF8D9F80C000028EADB06
:1012D00007F0030002280FD1B8F1000F0CD15CB168
:1012E000A54209D230214846641E00F079F8D9F8A9
:1012F0000C000028F3DAD6E7CDE9004743465A460A
:101300003146484600F002F8CDE700002DE9F84FDD
:101310008246DDE90A4B0126984691460D4608466D
:10132000374602E0B0FBF9F07F1C4845FAD2B845D9
:1013300000D947465FEACB7017D1B4B15FEA8B7032
:1013400002D5B8F1000F02D0202000900BE0302031
:10135000FBE75046641E009900F042F8DAF80C00F2
:10136000002838DB0CB1A742F3D3DAF80C000028D0
:1013700031DB00BFB8F1010F02D9A8F1010803E089
:10138000B5FBF6F0484502D306FB09F6F2E7DFF8B5
:101390004C8000BFB5FBF6F000FB165518F80010A6
:1013A000504600F01DF8DAF80C00002803DBB6FB0D
:1013B000F9F6002EEED15FEACB700CD0002C0AD0EB
:1013C000A74208D220215046641E00F009F8DAF83E
:1013D0000C000028F2DABDE8F88F0000681500085C
:1013E00010B50446D4E90130421C934205D323686A
:1013F0001954A260E068401CE060D4E90102824216
:1014000009D121682069FFF7E1FCA168884203D077
:101410004FF0FF30E06010BD0020A06010BD2DE94E
:10142000F047C4681746894606464FF00008306901
:10143000A04201D9051B02E0B168201A0D1AB0685C
:101440006D1E001BA84200D80546BD4200D33D4694
:1014500070682A4620444946FEF7EDFEB0687F1BBF
:101460002C44A844A944A04200D10024F460002FD9
:10147000DDD14046BDE8F0872DE9F04104468846BD
:10148000D4E90207C51BE168606816460844B54206
:1014900006D94146FEF7CFFEB819E060BDE8F081FD
:1014A0002A464146FEF7C7FE761B08EB0501324689
:1014B0006068FEF7C0FEE660F0E70907090E002845
:1014C00004DB00F1E02080F80014704700F00F000A
:1014D00000F1E02080F8141D704702E008C8121FD8
:1014E00008C1002AFAD170477047002001E001C10D
:1014F000121F002AFBD1704708B5FFF70FF8FFF75E
:1015000089FDFFF7AFFBFFF7CBFB00204FF48063B3
:10151000074A08A10090FFF7E3FB6420FEF7EEFE08
:101520000020FFF70DFC06A10020FFF799FCF4E76F
:101530002400002042756666657230557000000018
:1015400068656C6C6F20776F726C640D0A00000028
:101550000000000000000000010203040607080963
:1015600000000000010203043031323334353637D5
:101570003839414243444546981500080000002090
:1015800024000000DA140008BC1500082400002024
:10159000040D0000EA140008010000001000000023
:1015A000000000000024F4000030313233343536BE
:0C15B000373839414243444546000000F2
:040000050800019955
:00000001FF
