:020000040800F2
:100000000856002071020008D92700088B26000836
:10001000D5270008F10B0008C52C000800000000DF
:10002000000000000000000000000000B101000816
:100030000F0D0008000000000D020008FD27000859
:100040008B0200088B0200088B0200088B0200085C
:100050008B0200088B0200088B0200088B0200084C
:100060008B0200088B0200088B0200088B0200083C
:100070008B0200088B0200088B0200088B0200082C
:100080008B0200088B020008110900080000000024
:100090000000000000000000000000008B020008CB
:1000A0008B020008DD2800088B0200088B02000884
:1000B0008B0200088B0200088B0200088B020008EC
:1000C0008B0200088B0200088B0200088B020008DC
:1000D0008B0200088B0200088B0200080000000061
:1000E0008B0200088B0200088B0200080000000051
:1000F0000000000000000000000000008B0200086B
:10010000000000008B0200088B0200088B02000830
:1001100000000000000000000000000000000000DF
:10012000F50B00088B0200088B0200088B02000808
:100130008B0200080000000000000000000000002A
:100140000000000000000000000000008B0200081A
:100150008B0200088B0200088B0200088B0200084B
:100160008B0200088B020008000000000000000065
:10017000000000000000000000000000000000007F
:10018000000000008B0200080000000000000000DA
:100190008B0200088B020008DFF810D000F0E4FAB0
:1001A0000048004721430008AFF3008008560020B4
:1001B0002C4B19680868B0E8F04F80F30988BFF34A
:1001C0006F8F4FF0000080F311887047000000002F
:1001D00008480068006880F308884FF0000080F34A
:1001E000148862B661B6BFF34F8FBFF36F8F00DF25
:1001F00000BF00BF08ED00E0DFF80C00016841F42B
:1002000070010160704700BF88ED00E0EFF30980E6
:10021000BFF36F8F134B1A681EF0100F08BF20ED4D
:10022000108A20E9F04F106009B44FF0500080F3BD
:100230001188BFF34F8FBFF36F8F05F0EDF94FF0CB
:10024000000080F3118809BC19680868B0E8F04F15
:100250001EF0100F08BFB0EC108A80F30988BFF3BE
:100260006F8F704734000020EFF305807047000067
:100270000648804706480047FEE7FEE7FEE7FEE740
:10028000FEE7FEE7FEE7FEE7FEE7FEE7C928000817
:10029000990100082DE9F05F0546002092469B4633
:1002A00088460646814640241BE02846414647468C
:1002B000224600F091F853465A46C01A914110D395
:1002C00011461846224600F078F82D1A67EB01080F
:1002D0004F4622460120002100F06FF817EB00097D
:1002E0004E41201EA4F10104DFDC484631462A4677
:1002F0004346BDE8F09F40EA01039B0703D009E0B5
:1003000008C9121F08C0042AFAD203E011F8013B01
:1003100000F8013B521EF9D27047D2B201E000F85A
:10032000012B491EFBD270470022F6E710B5134699
:100330000A4604461946FFF7F0FF204610BD30B5C7
:1003400005462A460B4612F8010B13F8014B08B17B
:10035000A042F8D01CB1002802D06D1CF1E728465D
:1003600030BD421C10F8011B0029FBD1801A7047D8
:1003700030B505460020034600E05B1C934205D2E1
:10038000EC5CC85C201A01D1002CF6D130BD30B530
:100390000B46014600202022012409E021FA02F543
:1003A0009D4205D303FA02F5491B04FA02F52844DD
:1003B000151EA2F10102F1DC30BD202A04DB203A37
:1003C00000FA02F1002070479140C2F1200320FAA8
:1003D00003F3194390407047202A04DB203A21FAA6
:1003E00002F00021704721FA02F3D040C2F120024E
:1003F00091400843194670472DE9FE4F804681EA37
:100400000300C00F0C46009021F0004123F000458E
:10041000B8EB0200A94105D24046214690461C4651
:100420000B46024623F00040104347D0270DC7F388
:100430000A00C3F30A510290401A019040286BDA77
:10044000C3F3130040F4801B0098924620B10023B0
:10045000D2EB030A63EB0B0B01985946C0F1400243
:100460005046FFF7AAFF06460D4650465946019AE8
:1004700000F08CF910EB08006141002487EA11526A
:1004800084EAE7731A4340D0009A62B3019A012AC2
:100490004FEA075215DC001B61EB02014FF00042EE
:1004A00002EA0752CDE90042001C41F580113246B4
:1004B0002B4600F08CF903B0BDE8F08F4046214692
:1004C000F9E7001B61EB0201001C41F580130018E5
:1004D0005B412018A2F5001747EB030140EAD570F5
:1004E000B6196D4111E06D084FEA360645EAC07550
:1004F0004FEA0752001B61EB0201001C41F580111D
:1005000049084FEA30000019514132462B4603B0EA
:10051000BDE8F04F00F04CB90098012240000023E4
:10052000D0EB020263EBE073009821464FEAE074DF
:10053000B8EB000061EB0401E9E783F000435BE7FF
:1005400081F0004158E72DE9FE4F81EA030404F0F1
:10055000004421F0004100944FF0000B23F00043D1
:1005600050EA01045ED052EA03045BD0C3F30A549C
:10057000C1F30A552C44A4F2F3340194A0FB0254B5
:10058000C1F3130141F48011C3F3130343F4801347
:1005900001FB024400FB034E840A970A44EA81549B
:1005A00047EA8357A4FB076802958D0A05FB078578
:1005B0004FEA932C04FB0C542705029D4FEA065882
:1005C00047EA1637B5EB08056EEB070C870E920E5F
:1005D00047EA811742EA8312A7FB0201B6EB0B013F
:1005E00064EB00042B0D43EA0C335E1844EB1C5003
:1005F000DA465146E7FB0201C5F313044FEA0B3319
:1006000043EA14534FEA0432019C43EA0603A4F17F
:100610000C040294009CCDE900B400F0D8F803B0BB
:10062000BDE8F08F00200146F9E72DE9F04D81EAA1
:10063000030404F0004B21F0004514464FF0000A7B
:1006400023F0004150EA050220D054EA01021DD0F7
:10065000C5F30A570246C5F31303C1F31300C1F3F0
:100660000A5640F4801543F48013A7EB0608101BCC
:10067000D64608F2FD3873EB050002D308F10108F5
:1006800001E092185B41B8F1000F03DA0020014647
:10069000BDE8F08D00204FF48011064684460EE040
:1006A000171B73EB050705D3121B63EB050306430A
:1006B0004CEA010C49084FEA300092185B4150EABD
:1006C0000107EDD152EA030012D082EA040083EA66
:1006D0000501084305D0101BAB4106D201220023BF
:1006E00006E000224FF0004302E06FF001025310D9
:1006F0001AEB06004CEB085110EB0A0041EB0B0122
:10070000BDE8F04D00F054B8C1F30A52C1F3130133
:1007100040F2FF3341F480119A4202DA0020014690
:10072000704740F233439A42A2F2334202DC524213
:10073000FFF752BEFFF741BE30B5041E71F1000451
:1007400004DB4FF00044404264EB0101141E73F1DE
:10075000000405DB1C464FF00043524263EB0403E8
:10076000994208BF904230BD064C074D06E0E06854
:1007700040F0010394E8070098471034AC42F6D3E8
:10078000FFF70EFD90690008B0690008202A06DB1B
:10079000CB17203A41FA02F043EAE07306E041FA4F
:1007A00002F3D040C2F1200291400843194670473D
:1007B00010B5141E73F1000408DA401C41F1000169
:1007C00092185B411A4301D120F0010010BD2DE9C0
:1007D000F04D92469B4611B1B1FA81F202E0B0FAB7
:1007E00080F220329046FFF7E8FD04460F4640EACB
:1007F0000A0041EA0B0153465A46084313D01146FA
:1008000053EA010019D0C8F140025046FFF7E4FD59
:1008100005460E46504659464246FFF7CEFD084370
:1008200005D0012004E020463946BDE8F08D0020C7
:10083000054346EAE0762C4337430A986305E40A09
:10084000A0EB08000022FD0A44EA47540A3002D512
:1008500000200146E9E7010510196941DDE9084575
:1008600000196941BDE8F04DA2E770B50546AC6BD3
:10087000206C00F0500050BB206C40F400702064ED
:100880002068806800F04050E8B9207ED8B9206820
:10089000C06A00F4700020B12068806800F48060B5
:1008A00088B92068406820F0200021684860206CEA
:1008B00020F480702064206C00F4805018B9206C03
:1008C00040F001002064204600F0F8FA0BE0206CB4
:1008D00000F0100018B1204600F01DFB03E0A06BF3
:1008E000C16C2846884770BD70B50546AC6B40208A
:1008F0002064606C40F004006064204600F00BFB54
:1009000070BD70B50446A56B284600F003FB70BDB2
:1009100010B5024800F004FB10BD0000F4000020F8
:1009200055494A6822F440324A604A6843681A438B
:100930004A600268526822F4807203685A60026852
:100940005368026943EA022203685A6002685268E7
:1009500022F0407203685A600268526883681A4342
:1009600003685A600268926822F4006203689A6021
:1009700002689268C3681A4303689A603F4B826AB0
:100980009A4218D00268926822F0706203689A60F6
:1009900002689268836A1A4303689A6002689268E0
:1009A00022F0405203689A6002689268C36A1A4350
:1009B00003689A600BE00268926822F07062036834
:1009C0009A600268926822F0405203689A60026856
:1009D000926822F0020203689A6002689368027EBD
:1009E00043EA420203689A602022125CA2B10268C4
:1009F000526842F4006203685A600268526822F446
:100A0000604203685A6002685368426A521E43EAB1
:100A1000423203685A6005E00268526822F40062BC
:100A200003685A600268D26A22F470020368DA62CC
:100A30000268D36A828B521E43EA02520368DA626A
:100A40000268926822F4007203689A6002689368F0
:100A500090F8302043EA422203689A600268926864
:100A600022F4806203689A6002689368426943EAEC
:100A7000822203689A607047002301400100000F42
:100A80000EB50020029000BF0024651E631E02AA5E
:100A90002946204605F06CFC0646012E33D11A4942
:100AA0000298086019490978491CC9B2174A11709F
:100AB000084601EBD0714910A0EB410171B914480F
:100AC00000681449086014A08421184B18A2CDE9CD
:100AD00000101DA1002002F085FE0DE01C480068FA
:100AE0000C4908601BA08921104B11A2CDE9001010
:100AF00015A1002002F076FE002303221A48029975
:100B0000006805F037FABFE7200000201C00002035
:100B10000C00002004000020627566666572203DAE
:100B2000206275666665723200000000E4670008A6
:100B30002E2E2F436F72652F5372632F6672656579
:100B400072746F732E6300004D41494E0000000027
:100B500008000020627566666572203D2062756639
:100B60006665723100000000180000201FB50020EB
:100B7000039000BF00256E1E6B1E03AA3146284657
:100B800005F0F6FB0746012F17D10C4903980860C2
:100B900040F6E441039800FB01F408480460240B8C
:100BA000046007A0A821094B09A2CDE90104009126
:100BB0000DA1002002F016FE00BFDBE720000020A0
:100BC000566F6C74203D202564000000EE6700081D
:100BD0002E2E2F436F72652F5372632F66726565D9
:100BE00072746F732E6300004D41494E0000000087
:100BF00000BFFEE710B5024800F0A0FB10BD0000EA
:100C00003C0100200146087810381823B0FBF3F2AD
:100C10000848805CC865032A05D908686FF3090095
:100C2000001D886503E008686FF309008865886D1A
:100C300070470000F8670008014600208A6A8B6947
:100C4000CBB932B1012A0DD0022A03D0032A10D128
:100C50000EE000BFCB6A03F08073B3F1807F00D158
:100C6000012007E0CB6AB3F1C07F00D1012001E091
:100C700000E000BF34E08B69B3F5005F1AD132B1F8
:100C8000012A07D0022A03D0032A11D10AE000BFAB
:100C900001200EE0CB6A03F08073B3F1807F00D1B6
:100CA000012006E0CB6AB3F1C07F00D1012000E053
:100CB00000BF15E032B1012A05D0022A04D0032A70
:100CC0000CD103E000BF00BF012008E0CB6A03F0B5
:100CD0008073B3F1807F00D1012000E000BF00BF2E
:100CE000704730B50468246824F4802405682C60BB
:100CF000046863608468402C04D10468A2600468BE
:100D0000E16003E00468A1600468E26030BD704700
:100D100072B600BFFEE7704738B50246002000906B
:100D200000BF92F83C00012801D1022038BD01200B
:100D300082F83C0000BF0868092816D91068C0680E
:100D40000C780A3C04EB44050724AC40A04314682B
:100D5000E0600C780A3C04EB44048868A040146806
:100D6000E46820431468E06013E0106800690C78C0
:100D700004EB44050724AC40A043146820610C78C0
:100D800004EB44048868A040146824692043146874
:100D900020614868072817D21068406B0C79641EE0
:100DA00004EB84051F24AC40A043146860630888EA
:100DB00080B20C79641E04EB8404A0401468646B58
:100DC00020431468606331E048680D2817D210682A
:100DD000006B0C79E41F04EB84051F24AC40A04396
:100DE00014682063088880B20C79E41F04EB840443
:100DF000A0401468246B20431468206316E0106838
:100E0000C06A0C790D3C04EB84051F24AC40A04360
:100E10001468E062088880B20C790D3C04EB84040D
:100E2000A0401468E46A20431468E0621E4B1F4C23
:100E30001068A0420AD10868122807D1586820F427
:100E400000005860586840F480005860174C1068E3
:100E5000A04222D1164C0868A04202D0086811288E
:100E60001BD1586820F480005860586840F4000096
:100E700058600F4C0868A0420FD10E4800680E4C15
:100E8000B0FBF4F000EB80004000009002E000981E
:100E9000401E009000980028F9D100BF002082F881
:100EA0003C0000BF00BF41E700230140002001409B
:100EB000120000103000002040420F007CB50546B3
:100EC00011492868884200D07CBD284600F024F8EB
:100ED00004460E480068A8B10020019001A8002334
:100EE0000322214600900948006805F0D7F80198D0
:100EF00038B14FF0805006490860BFF34F8FBFF301
:100F00006F8F00BF00BFDFE700200140140000200A
:100F100004ED00E07047704701460868C06C7047F8
:100F20002DE9F04104460025002620680768206866
:100F3000D0F8048007F0020508F0200695B38EB3C0
:100F4000206C00F0100018B9206C40F40070206490
:100F50002068806800F04050E8B9207ED8B9206849
:100F6000C06A00F4700020B12068806800F48060DE
:100F700088B92068406820F0200021684860206C13
:100F800020F480702064206C00F4805018B9206C2C
:100F900040F0010020642046FFF790FF6FF0120040
:100FA0002168086007F0040508F08006E5B3DEB3A9
:100FB000206C00F0100018B9206C40F40050206440
:100FC0002068806800F4401038BB2068806B00F413
:100FD000401020B12068806800F48060E8B9206883
:100FE000406800F48060C0B92068806800F040501C
:100FF00098B9207E88B92068406820F08000216878
:101000004860206C20F480502064206C00F48070D4
:1010100018B9206C40F0010020642046FFF77BFEE9
:101020006FF00C002168086007F0010508F0400629
:1010300085B17EB12068006800F0010050B1206CDD
:1010400040F480302064204600F050F86FF001003A
:101050002168086007F0200508F080667DB176B150
:10106000606C40F0020060646FF02000216808604E
:101070002046FFF750FF6FF0200021680860BDE8B0
:10108000F081000070B5044600250CB9012070BD48
:101090001549A06A884200D000BF206C30B92046B4
:1010A00000F026F80020606484F83C00206C00F01A
:1010B000100088B9206C20F4885040F002002064B1
:1010C0002046FFF72DFC00206064206C20F0020019
:1010D00040F00100206400E0012500BF002084F8FA
:1010E0003C0000BF2846D2E70100000F7047000017
:1010F00010B586B00446142101A8FFF715F92C4954
:101100002068884252D100BF002000902948006822
:1011100040F48070274908600846006800F4807039
:10112000009000BF00BF00BF00200090214814388D
:10113000006840F001001F49143908600846006843
:1011400000F00100009000BF00BF022001900320CA
:1011500002900020039001A9174800F0CFFA174829
:101160001749086000204860002115488160C1606F
:101170004FF4806101614900416189008161491139
:10118000C16100210162416200F0F8F908B1FFF786
:10119000BFFD00BF0A48A063846300BF0022052191
:1011A000122000F04DFC122000F036FC06B010BDFD
:1011B0000020014044380240000002401064024018
:1011C0003C010020F8B504460D461646002000906C
:1011D00000BF94F83C00012801D10220F8BD012095
:1011E00084F83C0000BF2068806800F00100A0B9CE
:1011F0002068806840F001002168886048480068E5
:101200004849B0FBF1F000EB4000009002E000988C
:10121000401E009000980028F9D12068806800F4F2
:101220008070B0F5807F05D12068806820F48070E0
:10123000216888602068806800F00100002865D07F
:10124000206C40F20161884340F480702064206883
:10125000406800F4806028B1206C20F4005040F415
:1012600080502064206C00F48050B0F5805F04D181
:10127000606C20F00600606401E00020606400BF44
:10128000002084F83C0000BF274F2848A16BC863AA
:101290002748A16B08642748A16BC8646FF022003F
:1012A000216808602068406840F0806021684860DC
:1012B0002068806840F4807021688860226802F1AC
:1012C0004C0133462A46A06B00F0CEF9786800F056
:1012D0001F0058B92068806800F04050F0B92068BD
:1012E000806840F080402168886017E012492068DB
:1012F000884213D12068806800F0405070B920689F
:10130000806840F080402168886007E0206C40F0F1
:1013100010002064606C40F00100606400205DE714
:101320003000002040420F00002301406B080008FD
:1013300003090008E908000800200140F8B5044648
:10134000002000908C4800684FF41651B0FBF1F774
:10135000A56D2E6894F85C1008208840304098B144
:101360002068006800F0040070B12068006820F078
:1013700004002168086094F85C1008208840A86088
:10138000606D40F00100606594F85C1001208840B9
:10139000304068B12068406900F0800040B194F8A6
:1013A0005C1001208840A860606D40F0020060651C
:1013B00094F85C1004208840304068B120680068D0
:1013C00000F0020040B194F85C1004208840A8604E
:1013D000606D40F00400606594F85C101020884057
:1013E000304078B32068006800F0080050B394F8EB
:1013F0005C1010208840A8602068006800F48020FD
:1014000080B12068006800F4002028B9206CC8B1C1
:101410002046216C884715E0A06C98B12046A16C4D
:1014200088470FE02068006800F4807028B92068C1
:10143000006820F0080021680860206C10B1204688
:10144000216C884794F85C102020884030400028A8
:1014500065D02068006800F0100000285FD094F884
:101460005C1020208840A86094F83500052828D119
:101470002068006820F01600216808602068406934
:1014800020F0800021684861206C08B9A06C28B168
:101490002068006820F008002168086094F85C105B
:1014A0003F208840A860012084F8350000BF00205C
:1014B00084F8340000BF206D10B12046216D8847AC
:1014C000F8BD2068006800F4802080B120680068C2
:1014D00000F4002028B9606C10B12046616C884788
:1014E0001DE0E06BD8B12046E16B884717E020682B
:1014F000006800F4807068B92068006820F010006F
:1015000021680860012084F8350000BF002084F8BD
:10151000340000BFE06B10B12046E16B8847606D7E
:1015200038B3606D00F00100F0B1052084F835009B
:101530002068006820F001002168086000BF009862
:10154000401C0090B84200D905E02068006800F017
:1015500001000028F3D100BF012084F8350000BF4E
:10156000002084F8340000BFE06C10B12046E16C2C
:10157000884700BFA4E70000300000202DE9F041BB
:101580000446002500F09EF9074614B90120BDE885
:10159000F081606A00B100BF022084F8350000BF0E
:1015A000002084F8340000BF2068006820F00100AB
:1015B000216808600AE000F085F9C01B052805D9FC
:1015C00020206065032084F83500E0E7206800688B
:1015D00000F001000028EED1206805682148054090
:1015E000D4E901010843E1680843216908436169BE
:1015F0000843A1690843E1690843216A0843054398
:10160000606A042803D1D4E90B010843054320682C
:1016100005602068456925F00705606A0543606A32
:1016200004280DD1A06A0543E06A48B12046FFF7BF
:1016300003FB28B140206065012084F83500A6E74F
:10164000206845612046FFF7DDFA064694F85C10F5
:101650003F208840B06000206065012084F835009C
:10166000002094E73F8010F02DE9F04704460D4636
:1016700016461F464FF00008D4F8589000BF94F863
:101680003400012802D10220BDE8F087012084F84F
:10169000340000BF94F83500012825D1022084F8D9
:1016A0003500002060653B46324629462046FFF75C
:1016B00018FB94F85C103F208840C9F808002068A7
:1016C000006840F0160021680860206C28B120688E
:1016D000006840F00800216808602068006840F059
:1016E00001002168086006E000BF002084F8340093
:1016F00000BF4FF002084046C6E70000F8B50246BA
:101700000B460025002400200021C7E0012606FA30
:1017100001F51E6806EA0504AC4274D11E7906F094
:101720000306012E04D01E7906F00306022E13D103
:1017300090684F000326BE40B0434F00DE68BE40B5
:1017400030439060506801268E40B0431E79C6F346
:1017500000168E40304350601E7906F00306032EBB
:1017600009D0D0684F000326BE40B0434F009E68AA
:10177000BE403043D0601E7906F00306022E13D11E
:10178000CF0802F1200656F827004E07F70E0F2665
:10179000BE40B0434F07FF0E1E69BE403043CF0826
:1017A00002F1200646F8270010684F000326BE40CD
:1017B000B0431E7906F003064F00BE403043106070
:1017C0005E6806F44036002E67D000BF0026009603
:1017D000344E366846F48046324F3E603E463668A8
:1017E00006F48046009600BF00BF2F4E8F0856F8C3
:1017F00027008E07370F0F26BE40B0432B4EB24254
:1018000002D1002615E048E0294EB24201D101265E
:101810000FE0284EB24201D102260AE0264EB24223
:1018200001D1032605E0254EB24201D1042600E095
:1018300007268F073F0FBE4030431B4E8F0846F8E8
:1018400027001F4E3068A0435E6806F4801606B17C
:1018500020431B4E3060361D3068A0435E6806F49E
:10186000001606B12043164E361D3060144E361F4A
:101870003068A0435E6806F4003606B12043104E7F
:10188000361F3060361F3068A0435E6806F480362D
:1018900006B120430A4E083E3060491C1029FFF46F
:1018A00035AFF8BD4438024008380140000002401E
:1018B0000004024000080240000C024000100240F8
:1018C000083C0140014800687047000024000020E7
:1018D00003480068034909780844014908607047D3
:1018E000240000202C00002010B50D48006840F4B2
:1018F00000700B4908600846006840F4806008608A
:101900000846006840F480700860032000F0D6F8B4
:101910000F2000F007F800F055F8002010BD00007F
:10192000003C0240F0B587B004460026002700BF07
:10193000002000901E48006840F001001C4908602B
:101940000846006800F00100009000BF00BF01A938
:1019500002A800F089F900F0BFF906461548B6FB69
:10196000F0F0471E14481549086040F2E73113486B
:10197000C1604760002101618160816100F064FC09
:10198000054695B90D4800F093FC05466DB9192040
:1019900000F042F8102C07D200222146192000F056
:1019A0004FF80748046000E00125284607B0F0BD65
:1019B0004438024040420F0000000140E401002092
:1019C0002800002008B500BF0020009011480068E2
:1019D00040F480400F4908600846006800F48040E9
:1019E000009000BF00BF00BF00200090081F0068EB
:1019F00040F08050091F08600846006800F08050E1
:101A0000009000BF00BF00220F21901E00F018F8C8
:101A100008BD0000443802400146084600280DDB9E
:101A200000BF00BF00F01F0301229A4043099B0042
:101A300003F1E023C3F8002100BF00BF00BF7047DF
:101A40002DE9F05F80460D461646002701F080F92B
:101A5000074639462A46334601F00700C0F1070A17
:101A6000BAF1040F02D94FF0040A01E0C0F1070AED
:101A7000D14600F1040ABAF1070F02D24FF0000A72
:101A800001E0A0F1030AD4464FF0010A0AFA09FA6C
:101A9000AAF1010A0AEA020A0AFA0CFA4FF0010B4B
:101AA0000BFA0CFBABF1010B0BEA030B4AEA0B043C
:101AB0002146404601F054F9BDE8F09F00BF00F018
:101AC0000702064B19684FF6FF031940044B0B43FE
:101AD00043EA0221014B196000BF70470CED00E0A2
:101AE0000000FA0570B504460D460CB9012070BD22
:101AF0005848006800F00700A84209D255490D7007
:101B00000846006800F00700A84201D00120EEE777
:101B1000207800F0020002281DD1207800F0040097
:101B2000042805D14C48006840F4E0504A49086058
:101B3000207800F00800082805D14748006840F4E4
:101B40006040454908604448006820F0F000A16802
:101B5000084341490860207800F00100A8B360689C
:101B6000012807D13C4808380068C0F34040B8B9A4
:101B70000120BCE76068022802D06068032807D112
:101B8000354808380068C0F3406048B90120AEE726
:101B9000314808380068C0F3400008B90120A6E7C2
:101BA0002D48006820F00300616808432A49086056
:101BB000FFF788FE064609E0FFF784FE801B41F22E
:101BC0008831884202D9032091E707E02248006863
:101BD00000F00C006168B0EB810FEDD11D4800688A
:101BE00000F00700A84209D91A490D70084600689C
:101BF00000F00700A84201D0012078E7207800F02B
:101C00000400042807D11448006820F4E050E1687B
:101C1000084311490860207800F00800082808D11E
:101C20000D48006820F46040216940EAC1000A497B
:101C3000086000F061F808490968C1F30311074A18
:101C4000515CC8400649086006480068FFF76AFE14
:101C500000204CE7003C02400838024000680008C1
:101C600030000020280000200F2202600D4A126878
:101C700002F0030242600B4A126802F0F002826036
:101C8000084A126802F4E052C260064A126802F47E
:101C90006042D2080261044A126802F007020A6038
:101CA0007047000008380240003C024001480068CC
:101CB000704700003000002000B5FFF7F7FF04492F
:101CC0000968C1F38221034A515CC84000BD00008D
:101CD000083802401068000800B5FFF7E7FF044924
:101CE0000968C1F34231034A515CC84000BD00009D
:101CF00008380240106800082DE9F047002400254C
:101D00000026A1462548006800F00C0020B10428F8
:101D100005D008283AD105E0DFF8849039E0DFF8F3
:101D2000849036E01D48001F006800F03F041B4807
:101D3000001F006800F4800078B11A481749091F95
:101D40000968C1F38811A0FB0170014622460023F7
:101D50003846FEF79FFA05460EE011480F49091F65
:101D60000968C1F38811A0FB0170014622460023D7
:101D70003846FEF78FFA05460848001F0068C0F392
:101D80000140401C4600B5FBF6F902E0DFF8109078
:101D900000BF00BF4846BDE8F08700000838024099
:101DA0000024F40040787D01F8B504460CB9012008
:101DB000F8BD207800F00100002874D0F9480068D0
:101DC00000F00C0004280DD0F648006800F00C006C
:101DD000082813D1F348001F006800F48000B0F514
:101DE000800F0BD1EF4808380068C0F3404000284E
:101DF00059D06068002856D10120D9E700BF60683B
:101E0000B0F5803F08D1E7480838006840F48030DA
:101E1000E449083908601EE06068B0F5A02F0DD1D4
:101E2000E0480838006840F48020DE49083908603E
:101E30000846006840F4803008600CE0D948083853
:101E4000006820F48030D7490839086008460068E7
:101E500020F48020086000BF606890B1FFF732FD79
:101E6000054606E0FFF72EFD401B642801D903203C
:101E70009EE7CC4808380068C0F340400028F1D005
:101E800011E0FFF71FFD054606E0FFF71BFD401BB5
:101E9000642801D903208BE7C24808380068C0F3E2
:101EA00040400028F1D1207800F0020002285FD1E4
:101EB000BC48006800F00C0058B1BA48006800F057
:101EC0000C0008281CD1B748001F006800F48000EF
:101ED000B0B9B44808380068C0F3400020B1E068E9
:101EE000012801D0012063E7AE480838006820F0DF
:101EF000F800216940EAC100AA490839086037E0C2
:101F0000E06800B30120A8490860FFF7DBFC054644
:101F100006E0FFF7D7FC401B022801D9032047E762
:101F2000A04808380068C0F340000028F1D09D4860
:101F30000838006820F0F800216940EAC10099499A
:101F40000839086014E0002097490860FFF7BAFCE0
:101F5000054606E0FFF7B6FC401B022801D9032026
:101F600026E7904808380068C0F340000028F1D107
:101F7000207800F0080008282CD16069A8B1012061
:101F80008A490860FFF79EFC054606E0FFF79AFCC9
:101F9000401B022801D903200AE782486C30006800
:101FA000C0F340000028F1D014E000207F49086011
:101FB000FFF788FC054606E0FFF784FC401B02287B
:101FC00001D90320F4E677486C300068C0F3400084
:101FD0000028F1D1207800F00400042870D10027F7
:101FE00070483830006800F0805090B900BF002081
:101FF00000906C483830006840F0805069493831B2
:1020000008600846006800F08050009000BF00BFE4
:1020100001276748006800F48070B0B96448006820
:1020200040F4807062490860FFF74CFC054606E00A
:10203000FFF748FC401B022801D90320B8E65C48A2
:10204000006800F480700028F2D000BFA06801286A
:1020500008D154486830006840F0010051496831A7
:1020600008601DE0A06805280DD14E486830006862
:1020700040F004004B49683108600846006840F0B1
:10208000010008600CE047486830006820F001005B
:102090004449683108600846006820F00400086080
:1020A00000BFA068A8B1FFF70DFC054609E0FFF7E7
:1020B00009FC401B41F28831884202D9032077E6AF
:1020C00026E0384868300068C0F340000028EED0B1
:1020D00013E0FFF7F7FB054608E0FFF7F3FB401BB3
:1020E00041F28831884201D9032061E62D486830E9
:1020F0000068C0F340000028EFD1012F07D1294824
:102100003830006820F0805026493831086000BF20
:10211000A069002845D02348006800F00C0008287A
:102120005DD0A069022845D100201F490866FFF74D
:10213000C9FB054606E0FFF7C5FB401B022801D995
:10214000032035E6174808380068C0F340600028CF
:10215000F1D1D4E907010843616A40EA8111012203
:10216000A06AC2EB500041EA00412C20005D41EA28
:1021700000600C49091F086001200B490866FFF741
:10218000A1FB054606E0FFF79DFB401B022801D995
:1021900003200DE6034808380068C0F340600028BB
:1021A000F1D049E00838024000004742800E474223
:1021B00000700040002021490866FFF783FB0546B8
:1021C00006E0FFF77FFB401B022801D90320EFE563
:1021D0001B480068C0F340600028F2D12CE0A069E1
:1021E000012800D1E4E51648001D0668A069012811
:1021F00020D006F48001E06981421BD106F03F0146
:10220000206A814216D147F6C0703040616AB0EB57
:10221000811F0FD106F440310122A06AC2EB5000A9
:10222000B1EB004F06D106F070612C20005DB1EBE0
:10223000006F01D00120BBE50020B9E50000474256
:10224000003802407047704710B504460CB90120B1
:1022500010BD94F83D0028B9002084F83C002046C9
:1022600000F025F8022084F83D00211D206800F0D0
:102270003DFB012084F8460000BF84F83E000121A8
:102280003F200155402001554120015500BF00BFAE
:10229000012084F842004320015544200155452087
:1022A000015500BF012084F83D000020D0E77047B1
:1022B000014691F83D00012801D00120704702201D
:1022C00081F83D000868C06840F001000B68D860E4
:1022D000164B0868984213D00868B0F1804F0FD0B1
:1022E000134B086898420BD0124B0868984207D0ED
:1022F000114B0868984203D0104B086898420CD1E3
:102300000868806800F00702062A0CD00868006898
:1023100040F001000B68186005E00868006840F0B4
:1023200001000B6818600020C8E7000000000140B1
:102330000004004000080040000C00400040014044
:10234000704770B504462068C5682068066906F0C5
:102350000200022819D105F00200022815D1401F01
:1023600021680861012020772068806900F003005F
:1023700018B12046FFF7E4FF05E0204600F097F88B
:10238000204600F095F80020207706F0040004288D
:1023900019D105F00400042815D1C0432168086153
:1023A000022020772068806900F4407018B1204630
:1023B000FFF7C6FF05E0204600F079F8204600F060
:1023C00077F80020207706F00800082819D105F0DA
:1023D0000800082815D1C04321680861042020772F
:1023E0002068C06900F0030018B12046FFF7A8FF7D
:1023F00005E0204600F05BF8204600F059F8002088
:10240000207706F01000102819D105F010001028D0
:1024100015D1C04321680861082020772068C06971
:1024200000F4407018B12046FFF78AFF05E020460F
:1024300000F03DF8204600F03BF80020207706F041
:10244000010048B105F0010030B16FF001002168D2
:102450000861204600F02EF806F08000802809D19F
:1024600005F08000802805D1C0432168086120461E
:10247000FFF7E8FE06F04000402809D105F04000D3
:10248000402805D1C04321680861204600F01EF8AD
:1024900006F02000202809D105F02000202805D1D1
:1024A000C043216808612046FFF7CDFE70BD70472C
:1024B0007047000010B5044603492068884201D1E6
:1024C000FFF706FA10BD000000000140704710B58C
:1024D00004460CB9012010BDA06900B100E000BFA6
:1024E00094F8410028B9002084F84000204600F00C
:1024F00029F8242084F841002068C06820F40050A6
:102500002168C860204600F081FA2068006920F444
:102510009040216808612068406920F02A00216805
:1025200048612068C06840F400502168C8600020FD
:102530006064202084F8410084F842000020606339
:1025400000BFC8E710B586B00446142101A8FDF706
:10255000EBFE1B492068884230D100BF002000906C
:102560001848006840F010001649086008460068E6
:1025700000F01000009000BF00BF00BF00200090DE
:1025800010481438006840F001000E491439086002
:102590000846006800F00100009000BF00BF4FF443
:1025A000C06001900220029000200390032004905C
:1025B0000720059001A90448FFF7A0F806B010BD58
:1025C0000010014044380240000002402DE9F84F5D
:1025D00004460E46174699464FF0000A94F841000B
:1025E000202850D106B117B90120BDE8F88F00208E
:1025F0006064212084F84100FFF764F98246A784D3
:10260000E784A068B0F5805F04D1206910B9002587
:10261000B04602E035464FF000081EE05346002267
:1026200080212046CDF8009000F006FB20B120204C
:1026300084F841000320D8E745B9B8F80000C0F39A
:1026400008002168486008F1020803E02878216842
:1026500048606D1CE08C401EE084E08C0028DDD1D9
:102660005346002240212046CDF8009000F0E4FAC5
:1026700020B1202084F841000320B6E7202084F810
:1026800041000020B1E70220AFE700BFFEE70000F5
:102690001FB5002000900190029003901648174942
:1026A00008604FF480304860002114488160016167
:1026B00001210176002180F82010C1621049816259
:1026C0000021C1600121C161002180F83010012189
:1026D0004161FEF7D7FC08B1FEF71AFB012000901C
:1026E00001900020029069460448FEF715FB08B1EE
:1026F000FEF70EFB1FBD000000200140F40000208B
:102700000100000F08B500BF002000900A480068D3
:1027100040F48000084908600846006800F4800022
:10272000009000BF00BF002205213820FFF788F984
:102730003820FFF771F908BD3038024010B5074A5C
:102740000021074801F0D6FE06490860064A00212C
:10275000064801F0CFFE0649086010BD9C670008DE
:10276000810A000814000020C06700086D0B0008F3
:102770001800002008B500BF00200090064800683F
:1027800040F00100044908600846006800F00100BC
:10279000009000BF00BF08BD3038024010B50B48A4
:1027A0000B4908604FF4E13048600021084881601F
:1027B000C16001610C21416100218161C161FFF7AC
:1027C00086FE08B1FEF7A4FA10BD0000001001401B
:1027D0009C01002000BFFEE700BFFEE700BF012212
:1027E000044801680448FEF7EDFC012001F02CFECE
:1027F000F5E7000008000020F400002010B54FF0BD
:10280000E020006903F0FCFC012801D003F000F88F
:1028100010BD000000B593B0302107A8FDF784FD7E
:10282000142102A8FDF780FD00BF0020019024487C
:10283000006840F08050224908600846006800F0B7
:102840008050019000BF00BF00BF002001901D48D4
:10285000006840F440401B4908600846006800F4E6
:102860004040019000BF00BF0220079001200A9065
:1028700010200B9002200D9000210E9108210F9145
:1028800064211091022111910421129107A8FFF7F0
:102890008BFA08B1FEF73CFA0F2002900220039059
:1028A000002004904FF480500590002006900321F2
:1028B00002A8FFF717F908B1FEF72AFA13B000BD16
:1028C00040380240007000400348006840F4700047
:1028D000014908607047000088ED00E010B502482B
:1028E000FFF72FFD10BD0000E401002010B50268C5
:1028F000244B98420BD0B0F1804F08D0224B984225
:1029000005D0224B984202D0214B984203D122F0AD
:1029100070024B681A431B4B984214D0B0F1804FA1
:1029200011D0194B98420ED0184B98420BD0184B2F
:10293000984208D0174B984205D0174B984202D0C6
:10294000164B984203D122F44072CB681A4322F00E
:1029500080034C6943EA040202608B68C3620B681F
:102960008362084B984201D10B69036301234361E1
:10297000036903F001031BB1036923F00103036141
:1029800010BD0000000001400004004000080040AD
:10299000000C00400040014000440140004801405C
:1029A00000BF00BF02680C3252E8002F22F4907181
:1029B00002680C3242E80013002BF3D100BF00BFC5
:1029C00000BF0268143252E8002F22F001010268B1
:1029D000143242E80013002BF3D100BF016B012930
:1029E0000ED100BF00BF02680C3252E8002F22F067
:1029F000100102680C3242E80013002BF3D100BF33
:102A0000202180F842100021016370472DE9F84F22
:102A100004462068006920F44050E16808432168BA
:102A200008612169A068084361690843E1690843B6
:102A300000902068C06849F20C61884300990843FF
:102A40002168C8602068406920F44070A16908438B
:102A50002168486176492068884203D0754920681A
:102A6000884203D1FFF738F9814602E0FFF724F9E5
:102A70008146E069B0F5004F6CD102206168A0FB8F
:102A8000015003461920A9FB007001462A4638462A
:102A9000FDF700FC6421B0FBF1F04FEA001A0220C0
:102AA0006168A0FB01510B461920A9FB00712A4661
:102AB0003846FDF7EFFB834602206168A0FB01501A
:102AC00003461920A9FB00712A463846FDF7E2FBB0
:102AD0006421B0FBF1F000EBC00101EB0010ABEBA7
:102AE0008000322101EBC0006421B0FBF1F000F066
:102AF000F8000AEB400A02206168A0FB015003467F
:102B00001920A9FB007001462A463846FDF7C2FB92
:102B1000834602206168A0FB015003461920A9FBEF
:102B200000712A463846FDF7B5FB6421B0FBF1F091
:102B300000EBC00101EB0010ABEB8000322101EB98
:102B4000C0006421B0FBF1F000F0070050442168A0
:102B500088606AE004206168A0FB015003461920E8
:102B6000A9FB007001462A463846FDF793FB8246D2
:102B700004206168A0FB015003461920A9FB0070E6
:102B800001462A463846FDF785FB6421B0FBF1F08B
:102B900000EBC00101EB0010AAEB8000322101EB39
:102BA00000106421B0FBF1F000F0F00A042061682D
:102BB000A0FB017003461920A9FB00513A462846A4
:102BC000FDF768FB6421B0FBF1F00AEB001A04206A
:102BD0006168A0FB01510B461920A9FB00712A4630
:102BE0003846FDF757FB834604206168A0FB01507F
:102BF00003461920A9FB007001462A463846FDF716
:102C000049FB6421B0FBF1F000EBC00101EB0010C7
:102C1000ABEB8000322101EB00106421B0FBF1F03E
:102C200000F00F00504421688860BDE8F88F000074
:102C300000100140001401402DE9F84304460D4600
:102C400017469846089E31E0701C70B3FEF73AFEB6
:102C5000A0EB0800B04200D816B90320BDE8F88305
:102C60002068C06800F00400F8B1802D1ED0402D0F
:102C70001CD020680068C0F3C000B0B100BF0020C5
:102C8000009020680068009020684068009000BFB5
:102C900000BF2046FFF784FE0820606400BF0020CC
:102CA00084F8400000BF0120D8E7FFE720680068F3
:102CB0002840A84201D1012000E00020B842C3D042
:102CC0000020CBE700BFFEE70FB4054B10B503A90A
:102CD000044A029800F02CF910BC5DF814FB0000C7
:102CE000F9410008E80000200FB47CB50C0009ADE4
:102CF00001D0611E00E00021CDE90001064B6A46CB
:102D00002946089800F014F9002C02D0009A0021FE
:102D100011707CBC5DF814FB373600087CB50C00E4
:102D20001D461646014601D0601E00E00020CDE998
:102D30000010064B6A462946304600F0F9F8002C90
:102D400002D0009A002111707CBD000037360008C7
:102D500002480068C0F30220704700000CED00E05C
:102D600010B5002804DB0A07130E054A135406E0C9
:102D70000A07140E034A00F00F031B1FD45410BDA2
:102D800000E400E018ED00E0EFF30580704702E09A
:102D900008C8121F08C1002AFAD1704770470020E6
:102DA00001E001C1121F002AFBD170472DE9FF5F2E
:102DB00082B00021DDE90430020DDDF840B00343AC
:102DC00018D044F61050A2F2FF3242431514119865
:102DD00001281FD0A5EB0B00401C5FEA000A4FF052
:102DE00000064E4FDFF83891B046504615D5CAF16F
:102DF000000413E0119801244AA3012801D16FEACD
:102E00000B010298119AC0E90031C0E9024206B0F4
:102E1000BDE8F09FCBF10000DFE704460021404A07
:102E2000491842EB0450CDE9001012E0E00707D04A
:102E300032463B4640464946FDF785FB804689467B
:102E400032463B4610461946FDF77DFB06460F46C7
:102E50006410002CEAD1DDE90401DDE90023BAF1B8
:102E6000000F06DAFDF76FFB42464B46FDF76BFBA2
:102E700005E0FDF7DAFB42464B46FDF7D6FB04467C
:102E80000E460022284BFDF757FC03D84FF0FF30C9
:102E9000014607E00022254B20463146FDF7ACFAFB
:102EA000FDF732FC102409E0002C0ADB0A22002383
:102EB000FDF7F0F9039B30321A55641E50EA010207
:102EC000F2D1641C039AC4F111031444119A012A2B
:102ED00003D0012208430DD10AE0084304D00020AA
:102EE0004FF0110B119072E7A3EB0B056D1E0DE077
:102EF0005B4504DD4FF0000205F1010504E003DA53
:102F00004FF00002A5F10105002AECD002981199BA
:102F1000C0E90231C0E9004579E700000000144033
:102F20000000F03F300000000000F0430000E03FF0
:102F30002DE9FF4F95B09A46884606460025EEE1FA
:102F4000252877D100242746F94A0121039400E07F
:102F5000044316F8013F203B01FA03F01042F7D179
:102F600030782A2811D06FF02F033078A0F130028A
:102F7000092A16D8039A44F0020402EB820203EBFA
:102F800042021044761C0390EFE758F8042B03929A
:102F9000002A03DA504244F40054039044F002043F
:102FA000761C30782E2816D116F8010F44F0040450
:102FB0002A280DD06FF02F023078A0F13003092BB2
:102FC00009D807EB870302EB4303C718761CF3E726
:102FD00058F8047B761C30786C280FD006DC4C281F
:102FE00017D068280DD06A2814D104E0742810D0B6
:102FF0007A280FD10DE044F400140AE044F4801460
:1030000001E044F440147278824202D104F5801445
:10301000761C761C307866280BD013DC582877D0C5
:1030200009DC002875D04528F6D04628F4D047287A
:103030001AD193E118E0632835D0642879D0652847
:1030400012D18BE1702873D008DC6728F1D0692891
:103050006FD06E280DD06F2806D1ACE073282CD02D
:10306000752874D0782853D05246179990476D1C14
:1030700054E1C4F30250022809D003280DD0D8F837
:10308000001004280DD00D6008F1040846E1D8F8BE
:103090000010EA17C1E90052F6E7D8F800100D80D9
:1030A000F2E70D70F0E718F8041B8DF8001000200F
:1030B0008DF80100EB46012003E058F804BB4FF007
:1030C000FF3061074FF0000102D40DE009F101016A
:1030D0008946B9420FDA8145F8DB1BF8091000294F
:1030E000F4D108E009F1010189468142FADB1BF8BD
:1030F00009100029F6D103985346A0EB0907214691
:103100003846179A00F080FA284400EB090507E0DA
:1031100044E008E10DE01BF8010B52461799904777
:10312000B9F10109F7D2534621463846179AF2E021
:1031300039E00A21C4F302524FF0000B0091022A39
:1031400006D058F8040BC117032A09D00AE023E07F
:1031500008F1070020F00702F2E80201904605E0BE
:1031600000B2C117042A01D140B2C117002906DA02
:103170000A460021404261EB02012D2202E02205B5
:1031800004D52B228DF80420012203E0E20701D0B0
:103190002022F7E7914657E00A2100E010214FF086
:1031A000000B00910BE010214FF0000B44F00404E1
:1031B0000827009103E008204FF0000B0090C4F3B3
:1031C0000252022A05D058F8040B0021032A08D025
:1031D00008E008F1070020F00702F2E8020190463B
:1031E00003E080B2042A00D1C0B24FF000092207E8
:1031F0002AD53278702A07D0DDF800C08CF0100C88
:103200005CEA0B0C05D00EE040228DF80420012270
:1032100008E050EA010306D030238DF804308DF821
:10322000052002229146009B83F0080353EA0B031A
:103230000AD150EA010201D1620705D530228DF88A
:1032400004204FF001097F1E3278582A04D039A299
:103250000C920CAA02920BE03BA2F9E75B46009AA3
:10326000FDF718F80C9B9B5C029A521E0292137099
:1032700050EA0102F2D1029804A9081A00F1200BC9
:10328000600702D524F4803400E001275F4502DDA9
:10329000A7EB0B0000E0002000EB0B01009003986F
:1032A0004944401A0390E00306D453462146179A36
:1032B000039800F0A9F90544002706E001A852464A
:1032C000C05D179990476D1C7F1C4F45F6DBE003EE
:1032D0000CD553462146179A039800F095F90544FA
:1032E00004E030205246179990476D1C0099481E03
:1032F00000900029F5DC08E0029802995246007817
:10330000491C0291179990476D1CBBF10001ABF16C
:10331000010BF1DC5BE100F065F90544761C3078C7
:1033200000287FF40DAE19B02846BDE8F08F0000EC
:10333000092801003031323334353637383961628B
:10334000636465660000000030313233343536374F
:10335000383941424344454600000000600700D42C
:10336000062708F1070020F00700F0E80223804656
:1033700003F0004C5FEA0C0001D097A009E02005A3
:1033800001D596A005E0E00701D095A001E0AFF2DD
:103390004C001390307823F0004365280CD006DCF5
:1033A000452809D046281DD047287FD13BE0662814
:1033B00018D067287AD136E00021112F01DB1120C7
:1033C00000E0781CCDE9000104A90CA8FFF7EEFC91
:1033D000DDE90D010C9A4FF0000B07F10109109285
:1033E00000914EE04FF000400097CDE9011004A994
:1033F0000CA8FFF7DBFCDDE90D020C9B0F994FF0E9
:10340000000B91461093009211B9791C00EB010951
:10341000B7EB090003D4C0F1FF3B07F10109A9EBA9
:103420000700019042E0012F00DA01270021112F4F
:1034300001DD112000E03846CDE9000104A90CA807
:10344000FFF7B4FCDDE90D010C9A00914FF0000B81
:10345000B946109221070FD4009A4A4503DA9146E3
:1034600001E0A9F10109B9F1010F05DD109AA9F1F7
:103470000101515C3029F4D0B84202DA10F1040F96
:1034800003DA0121CDE9011010E0002803DC8344B8
:10349000A9EB000102E0411C494500DD8946A0EB93
:1034A0000B00401C01904FF000400290200705D413
:1034B0000198484502DB4FF0FF30019000208DF865
:1034C0004B0002980DF14B07B0F1004F25D00220C0
:1034D0000C902B200D90029800280CDA40420290AC
:1034E0002D200D9007E00A210298FCF750FF3031A3
:1034F000029007F8011D0C99481E0C900029F2DC7F
:1035000002980028EFD1791E0D980870307800F0ED
:10351000200040F0450007F8020D11A8C01BC01D97
:1035200002901398007800B1012000EB0901019886
:1035300001EBE071029801440398401A401E039089
:10354000E00306D453462146179A039800F05CF82E
:1035500005441398007818B15246179990476D1C8E
:10356000E00323D553462146179A039800F04CF800
:1035700005441BE0BBF1000F07DB0098584504DD54
:103580001098179910F80B0001E017993020524657
:10359000904701980BF1010B401E05F101050190C8
:1035A00004D12E205246179990476D1CB9F10001A5
:1035B000A9F10109DEDC05E017F8010B5246179965
:1035C00090476D1C0299481E02900029F4DC534676
:1035D0002146179A03989EE62D0000002B0000005C
:1035E000200000002DE9F041044600251E46174644
:1035F000880404D405E039462020B0476D1C641EC1
:10360000F9D52846BDE8F0812DE9F04104460025B2
:103610001E469046C80301D5302700E020278804C5
:1036200004D505E041463846B0476D1C641EF9D507
:103630002846BDE8F0814A68002A06D00A68531C73
:103640000B6010704868401E4860704710B500F06D
:10365000A1F8E721002000F0C5FBE721042000F0DD
:10366000C1FBE721012000F0BDFBE721032000F0B2
:10367000B9FBE721022000F0B5FB00F0EFFC10BD24
:1036800070B586B00546002D1CD12648006800287C
:1036900011D14FF4F070244924A229A3CDE90310DD
:1036A000CDE9013200900B462EA237A1002000F098
:1036B00099F800BFFEE74FF4F0721B491BA0194BAD
:1036C0001B68984700240526314890F8F00010B98F
:1036D000304606B070BD00F08FFA00241BE004EB0A
:1036E00044112B483130084490F82000012810D1B3
:1036F00004EB4412264831301044411C1E22284657
:10370000FCF736FE28B904EB441121483130465C01
:1037100003E0601CC4B2052CE1DB00BF00F0A0FA9E
:103720003046D6E7E4000020AA68000874616720EC
:10373000213D202828766F6964202A29302900003D
:103740002825732920686173206173736572742062
:103750006661696C65642061742025733A256C6428
:103760002E0000002E2E5C4D6964646C65776172DA
:1037700065735C456173796C6F675C7372635C65DC
:103780006C6F672E63000000656C6F6700000000BF
:103790000C4B002010B50024114890F8F0000128CF
:1037A00001D1204610BD00F089FA04460CB1204634
:1037B000F8E7012000F034FA0020094981F8F3000D
:1037C00081F8F400012000F0DDFB052000F08AFA0A
:1037D00000F0EAFA0120024981F8F0002046E1E712
:1037E0000C4B00200FB42DE9F04F8DB005460F466D
:1037F0009846DDF868903846FCF7B3FD8246002411
:103800004FF0020B00200B900C900790089009904D
:103810000A90052D1CDDCC480068002811D140F22B
:103820003E20CA49CAA2D1A3CDE90310CDE9013295
:1038300000900B46D6A2DFA10020FFF7D3FF00BF08
:10384000FEE740F23E22C149C1A0BF4B1B6898472A
:10385000DA4890F8F10020B90DB0BDE8F00F5DF83E
:1038600014FBD6480078A84204DB3846FFF708FF6F
:10387000A84200DAF0E7D149491C3846FCF75FFD61
:1038800000B9E9E71CA8069000F0B6F9CB4890F81B
:10389000F50078B1CA480119CAA2204600F028FCF8
:1038A0000444C94850F82520C5480119204600F0B5
:1038B0001FFC04440121284600F0ACFC40B1C34881
:1038C00050F82520BE480119204600F011FC0444A0
:1038D0000221284600F09EFCE8B1B94801193A4699
:1038E000204600F005FC0444BAF10F0F0CD8CAF1D1
:1038F0000F01202207A8FCF710FDB148011907AA03
:10390000204600F0F5FB0444AD480119B0A2204662
:1039100000F0EEFB04441C21284600F07BFC00284C
:1039200052D0A7480119ABA2204600F0E1FB0444A5
:103930000421284600F06EFCA8B100F0ADF9059016
:103940009F4801192046059A00F0D2FB0444182133
:10395000284600F05FFC30B1994801199CA220462E
:1039600000F0C6FB04440821284600F053FCA8B12F
:1039700000F08AF90590924801192046059A00F056
:10398000B7FB04441021284600F044FC30B18C48B9
:1039900001198FA2204600F0ABFB044410212846F9
:1039A00000F038FC48B100F073F905908448011923
:1039B0002046059A00F09CFB04448148011986A228
:1039C000204600F095FB044420212846189A00F078
:1039D0008BFC60B942464021284600F085FC30B996
:1039E0004A468021284600F08DFC002862D07448A9
:1039F00001197AA2204600F07BFB044420212846CE
:103A0000189A00F071FC08B36D4801192046189A05
:103A100000F06EFB044442464021284600F064FC5E
:103A200038B1674801196EA2204600F061FB0444DA
:103A30000CE04A468021284600F064FC30B1604822
:103A4000011963A2204600F053FB04444A4680213A
:103A5000284600F057FCC8B14B4662A205210BA8CE
:103A6000FFF742F9564801190BAA204600F040FB27
:103A7000044442464021284600F036FC30B150480C
:103A8000011953A2204600F033FB04444246402172
:103A9000284600F029FC30B1494801194246204629
:103AA00000F026FB0444464801194FA2204600F0CE
:103AB0001FFB0444C4F58061414A1019069B1B9A00
:103AC000FFF72CF9064600200690A019B0F5806F8C
:103AD00003D8002E01DB344401E04FF48064201D44
:103AE0005844B0F5806F04D94FF48064241FA4EBD0
:103AF0000B04324890F8200058B100203049085596
:103B00002E4920312E48FCF71AFC10B900F0A8F815
:103B1000A2E62A4890F8F50030B12948011933A2ED
:103B2000204600F0E5FA04442548011931A2204658
:103B300000F0DEFA04442146214800F0C1F800F00C
:103B40008FF800BF88E60000E4000020C26800088B
:103B50006C6576656C203C3D20454C4F475F4C566C
:103B60004C5F564552424F534500000028257329AB
:103B70002068617320617373657274206661696C7B
:103B800065642061742025733A256C642E00000062
:103B90002E2E5C4D6964646C6577617265735C455B
:103BA0006173796C6F675C7372635C656C6F672EB1
:103BB00063000000656C6F67000000000C4B002084
:103BC000044C00201B5B0000CC000020B40000204F
:103BD000200000005B0000005D20000028000000C5
:103BE0003A000000256C6400290000001B5B306D6A
:103BF000000000000D0A000010B5084890F8F2001F
:103C000030B100F06BF80120044981F8F40003E0C2
:103C10000120024981F8F30010BD00000C4B002088
:103C200010B504460D4880F8F24090F8F200A0B1BB
:103C30000A4890F8F40030B9084890F8F30010B141
:103C400000F04CF809E0054890F8F40028B103486A
:103C500090F8F30008B900F043F810BD0C4B0020B9
:103C600010B5084890F8F20030B100F039F80020A3
:103C7000044981F8F40003E00020024981F8F300D0
:103C800010BD00000C4B002000A070470000000099
:103C900000A070470000000010B5FDF713FE0446B9
:103CA000234603A20A210448FFF71EF8024810BD6C
:103CB0002530396C75000000004B00200020704753
:103CC00070B504460D462246294602A0FEF7FCFFC9
:103CD00070BD0000252E2A730000000072B67047E8
:103CE00062B6704710B586B00446052C1CDD10483E
:103CF0000068002811D14FF4AD700E490EA215A333
:103D0000CDE90310CDE9013200900B461AA223A1A0
:103D10000020FFF767FD00BFFEE74FF4AD720549D5
:103D200005A0034B1B6898471E48047006B010BDE1
:103D3000E40000207E6800086C6576656C203C3DE0
:103D400020454C4F475F4C564C5F564552424F53AF
:103D50004500000028257329206861732061737372
:103D6000657274206661696C6564206174202573D6
:103D70003A256C642E0000002E2E5C4D6964646C44
:103D80006577617265735C456173796C6F675C73AD
:103D900072635C656C6F672E63000000656C6F6713
:103DA000000000000C4B002010B5002400BF13E001
:103DB00004EB44120A491144481C1F21FCF7B4FAD1
:103DC000002104EB44120648815404EB44121044D1
:103DD00080F82010601CC4B2052CE9DB10BD000087
:103DE0003D4B002030B585B004460D46052C1CDD4A
:103DF00010480068002811D14FF4A0700E490FA29E
:103E000015A3CDE90310CDE9013200900B461BA2AA
:103E100023A10020FFF7E6FC00BFFEE74FF4A072ED
:103E2000054906A0034B1B6898471F4840F82450DB
:103E300005B030BDE4000020616800086C6576655F
:103E40006C203C3D20454C4F475F4C564C5F5645DF
:103E500052424F53450000002825732920686173A2
:103E600020617373657274206661696C656420619A
:103E7000742025733A256C642E0000002E2E5C4DB4
:103E80006964646C6577617265735C456173796CB4
:103E90006F675C7372635C656C6F672E6300000014
:103EA000656C6F6700000000E44B002010B586B021
:103EB0000446002C1ED0012C1CD01148006800289C
:103EC00011D140F215100F490FA219A3CDE903102B
:103ED000CDE9013200900B461EA227A10020FFF77A
:103EE00081FC00BFFEE740F21512064906A0044B14
:103EF0001B689847224880F8F14006B010BD0000CA
:103F0000E40000202D68000828656E61626C65641D
:103F1000203D3D2066616C736529207C7C202865EE
:103F20006E61626C6564203D3D2074727565290088
:103F3000282573292068617320617373657274206A
:103F40006661696C65642061742025733A256C6430
:103F50002E0000002E2E5C4D6964646C65776172E2
:103F600065735C456173796C6F675C7372635C65E4
:103F70006C6F672E63000000656C6F6700000000C7
:103F80000C4B002010B586B00446002C1ED0012C2E
:103F90001CD011480068002811D140F221100F49AF
:103FA0000FA219A3CDE90310CDE9013200900B4611
:103FB0001EA227A10020FFF715FC00BFFEE740F27C
:103FC0002112064906A0044B1B689847224880F836
:103FD000F54006B010BD0000E40000204568000870
:103FE00028656E61626C6564203D3D2066616C737E
:103FF0006529207C7C2028656E61626C6564203DAB
:104000003D20747275652900282573292068617325
:1040100020617373657274206661696C65642061E8
:10402000742025733A256C642E0000002E2E5C4D02
:104030006964646C6577617265735C456173796C02
:104040006F675C7372635C656C6F672E6300000062
:10405000656C6F67000000000C4B00200EB50B482C
:1040600090F8F00000B90EBD0120FFF71FFF08A077
:1040700009A1F622124BCDE90021029011A21AA14A
:104080000320FFF7AFFB00BFEDE700000C4B002063
:10409000322E322E39390000456173794C6F6767D3
:1040A00065722056257320697320696E6974696191
:1040B0006C697A6520737563636573732E00000005
:1040C000186800082E2E5C4D6964646C6577617217
:1040D00065735C456173796C6F675C7372635C6573
:1040E0006C6F672E63000000656C6F670000000056
:1040F000F0B585B006460D4614462746002D1AD168
:1041000024480068002810D12C20234923A224A38E
:10411000CDE90310CDE9013200900B4629A233A16D
:104120000020FFF75FFB00BFFEE72C221A491BA00F
:10413000184B1B689847002C19D11648006880B9A5
:104140002D2015492BA216A3CDE90310CDE901328C
:1041500000900B461BA225A10020FFF743FB00BFE8
:10416000FEE72D220C4923A00A4B1B6898470AE062
:104170003046761CB0F5806F04D214F8010B05F8B8
:10418000010B00E002E020780028F1D100BFE01B25
:1041900005B0F0BDE4000020FA6800086473740004
:1041A00028257329206861732061737365727420F8
:1041B0006661696C65642061742025733A256C64BE
:1041C0002E0000002E2E5C4D6964646C6577617270
:1041D00065735C456173796C6F675C7372635C6572
:1041E0006C6F675F7574696C732E6300656C6F67C5
:1041F000000000007372630013B50C464FF6FF73A6
:10420000012269460248FEF7E1F900981CBD000052
:104210009C01002030B585B004460D46052C1CDD00
:1042200013480068002811D140F2DF20114912A282
:1042300018A3CDE90310CDE9013200900B461EA270
:1042400026A10020FFF7CEFA00BFFEE740F2DF22F2
:10425000084909A0064B1B689847224850F82400DB
:10426000284010B1012005B030BD0020FBE7000060
:10427000E4000020CE6800086C6576656C203C3D4B
:1042800020454C4F475F4C564C5F564552424F536A
:10429000450000002825732920686173206173732D
:1042A000657274206661696C656420617420257391
:1042B0003A256C642E0000002E2E5C4D6964646CFF
:1042C0006577617265735C456173796C6F675C7368
:1042D00072635C656C6F672E63000000656C6F67CE
:1042E00000000000E44B002070B505460E46144661
:1042F00034B131462846FFF78DFF08B1012070BD6B
:104300000020FCE770B505460E46144634B1314630
:104310002846FFF77FFF08B1012070BD0020FCE7B1
:104320001CB5042000F05AF81B490860042000F076
:1043300055F81A490860FDF7D7FAFEF76BFAFEF751
:1043400019FAFEF7DFF9FEF7A3F9FEF727FAFFF7F0
:104350007DF913A08A21144B14A2CDE9001018A1F5
:104360000020FFF73FFA0C48006817490860012257
:10437000084601681548FCF725FF00F075F8FEF7C0
:10438000DDF9134A0021134800F0B4F8124908601F
:1043900000F080F800BFFEE7080000200C000020BD
:1043A00068656C6C6F000000706700082E2E2F434C
:1043B0006F72652F5372632F6D61696E2E630000FB
:1043C0004D41494E0000000004000020F400002090
:1043D0004C670008DD27000800000020F0B50B3016
:1043E000154D20F007010024144A0FE003688B42AA
:1043F0000BD38B4205D95E1A43184768C3E900679F
:1044000000E04368136002C004E0021D1068002849
:10441000ECD12046002802D1286808B10020F0BD68
:10442000064A07481060074A121A22F00702C0E93C
:10443000002401202860D7E7F0000020EC000020D5
:104440000C5000200852002070B50546FEF79CFC79
:1044500010B16FF0050404E0002415B1284600F007
:10446000FBFF204670BD000010B5FEF78DFC10B1BB
:104470006FF0050409E00648006820B901200449EE
:104480000860002401E04FF0FF34204610BD00001A
:104490008400002070B5FEF777FC10B16FF00504C2
:1044A0001FE011480068012819D100BF801F0021BA
:1044B000002804DB0A07130E0C4A135406E00A070F
:1044C000150E0B4A00F00F031B1FD55400BF00BF91
:1044D00002200549086001F03BF8002401E04FF09C
:1044E000FF34204670BD00008400002000E400E09E
:1044F00018ED00E02DE9FF4780468946144600206C
:104500000390FEF741FC00284ED1B8F1000F4BD0CC
:10451000802618258246471E44B3206808B1D4F887
:1045200000A0A06900B1A5692DB1382D03D820796C
:1045300000F0010018B1002004B0BDE8F087606908
:1045400008B160698608A06840B1E0685C2805D3BE
:10455000206918B1606908B1012708E0A06830B986
:10456000E06820B9206910B9002700E00027012F7A
:104570000CD12169A0684B463246CDE9005102902A
:104580005146404601F098FC03900DE067B903A83E
:10459000B2B24B465146CDE90050404601F05AFCBC
:1045A000012801D0002003900398C5E72DE9F041D0
:1045B00005460E461648076816480068001D00F0BC
:1045C000C3FD681C38B936B112480168091D12488C
:1045D00000F010FE1AE07C190E4800684460BC42EE
:1045E00007D20C480168091D0C48006800F0E8FD7E
:1045F0000CE008480168091D0948006800F0E0FD6A
:1046000008480068844201D206480460BDE8F08191
:1046100048000020340000201C0700203C0000203F
:10462000380000206400002010B5044600F0EEFDC4
:1046300024480068401C234908602348006840B9AA
:10464000214804600846006801280DD100F0FCF9FB
:104650000AE01E48006838B91B480068C06AE16A71
:10466000884201D81848046019480068401C18495D
:1046700008600846006860641649E06A0968884274
:1046800002D91449E06A0860E16A01EB8101124A2B
:1046900002EB8100211D00F0ADFD00F0E1FD0B48B3
:1046A000006868B108480068C06AE16A884207D2B9
:1046B0004FF0805009490860BFF34F8FBFF36F8FF1
:1046C00010BD0000440000203400002050000020F5
:1046D000600000204C0000206C02002004ED00E08F
:1046E00008B500F093FD12480068E8B9114800F0E1
:1046F00057FD114800F054FD0E48104908600E485F
:104700000F49086000200F4B0F4A102100900A202B
:1047100001F098F8064908600846006820B10BA12E
:104720000348006800F05CFE00F09AFD08BD000040
:10473000780000203007002044070020700000208F
:104740007400002058070020A8070020546D725103
:104750000000000010B516E000F058FD0C48C068DD
:10476000C468201D00F0F0FC0A480068401E09499A
:10477000086009480068401E0749086000F070FDA5
:10478000204600F05FF8044800680028E4D110BD1E
:1047900008070020440000204000002070B50446B7
:1047A0000D46206C70B1216CE0680144E160D4E9F1
:1047B0000210884201D32168E1602846226CE1683A
:1047C000FBF799FD70BD2DE9F04104460F461546F3
:1047D0004FF00008A66B206C48B9206800282CD147
:1047E000A06801F015FE80460020A06025E07DB99C
:1047F0003946226C6068FBF77EFD216C60680844D6
:104800006060D4E90101884217D32068606014E039
:104810003946226CE068FBF76EFD216CE068411AB6
:10482000E1602168E068884203D2216CA068411AE7
:10483000E160022D01D106B1761E701CA0634046D6
:10484000BDE8F08110B5044694F8590030B9206BEA
:1048500000F024FD204600F021FD1AE094F85900F4
:10486000012803D1204600F019FD12E094F8590008
:10487000022801D1012000E0002050B900BF5020E3
:1048800080F31188BFF34F8FBFF36F8F00BF00BF5E
:10489000FEE710BD0146084A126812680AB90122F3
:1048A00000E000220A600A6822B9034A1268D2684E
:1048B000106800E0002070477000002030B54FF411
:1048C0007053174800F007042CB1C01D20F00700FA
:1048D000134C041B1B1B0246124C22600024114D7A
:1048E0006C60D018083820F007000F4C20600024BE
:1048F0000D4D2D686C600C4D2D682C601146441ACE
:104900004C60094C24680C60084D4C682C60084DC4
:104910004C682C604FF00044064D2C6030BD000008
:10492000000F002088000020900000209800002048
:1049300094000020A400002000BFFFF70BFF0648F2
:1049400000680128F9D94FF0805004490860BFF38E
:104950004F8FBFF36F8FF0E76C02002004ED00E093
:104960002DE9F04106460D4617469846069C0DB9BE
:10497000246000E02760E66325640121204600F002
:10498000D1FF84F84C80BDE8F0812DE9F05F8246CC
:104990000E4690469B460A9F0C9C4FEA8801A52232
:1049A000206BFBF7BAFCA8F10100216B01EB800939
:1049B00029F0070909F0070008B9012000E00020EC
:1049C00050B900BF502080F31188BFF34F8FBFF361
:1049D0006F8F00BF00BFFEE786B1002507E0715D65
:1049E00004F134004155705D00B902E06D1C102DDA
:1049F000F5D300BF00214320015502E0002084F8D8
:104A00003400382F00D33727E762E76400202065A1
:104A1000201D00F0D2FB04F1180000F0CEFB246151
:104A2000C7F13800A06164620020606584F8580016
:104A30005A465146484600F071FB20600B9808B179
:104A40000B980460BDE8F09F10B5002407E004EB6C
:104A500084010F4A02EB810000F0A2FB641C382C99
:104A6000F5D30C4800F09CFB0B4800F099FB0B4879
:104A700000F096FB0A4800F093FB0A4800F090FB18
:104A800004480949086004480849086010BD00004E
:104A90006C020020CC060020E0060020F406002076
:104AA000080700201C070020380000203C000020E0
:104AB00010B50146164800E0006803688B42FBD33E
:104AC0000246436813448B4204D143684C68234434
:104AD000436001460A464B6813440468A34211D15F
:104AE0000C4C03682468A34208D04B6804686468CF
:104AF00023444B6003681B680B6005E0054B1B6893
:104B00000B6001E003680B60884200D0016010BDBB
:104B100088000020900000202DE9F04104460D4659
:104B200016461F464FF0000865602461B5420CD858
:104B3000F01BA169884202D34FF0010811E0211D4A
:104B40000948006800F03CFB0BE0BE4204D2BD42C5
:104B500002D34FF0010804E0211D0448006800F072
:104B60002FFB4046BDE8F08174000020700000205B
:104B700070B5054600F04AFBA86B08B9012400E0B7
:104B8000002400F06DFB204670BD70B5054600F0B6
:104B90003DFBA86BE96B884201D1012400E00024B1
:104BA00000F05EFB204670BDF8B505460F461A487A
:104BB0000068C068C468201D00F0C6FA94F8280098
:104BC00000F00400E8B1A06941192B463A4620469E
:104BD000FFF7A2FFD8B1002003462A460146009005
:104BE000204601F071FD064656B900BF502080F303
:104BF0001188BFF34F8FBFF36F8F00BF00BFFEE779
:104C000005E094F8280020F0010084F828002046F0
:104C1000216A8847F8BD000070000020F0B587B019
:104C2000A0E00398002811DA04AE56B900BF502066
:104C300080F31188BFF34F8FBFF36F8F00BF00BFAA
:104C4000FEE7D6E90020B168904700BF039800282E
:104C5000E6DB059C606908B9012000E0002010B97E
:104C6000201D00F071FA02A800F0DEF80546039856
:104C70000A2875D2DFE800F0090507394163060804
:104C80003A4200BF00BF00BF00BF94F8280040F0C8
:104C9000010084F828000498A269811803462A4676
:104CA0002046FFF739FFF8B12046216A884794F87B
:104CB000280000F00400B8B1002000900498A16919
:104CC000421800231946204601F0FEFC074657B95A
:104CD00000BF502080F31188BFF34F8FBFF36F8F59
:104CE00000BF00BFFEE700BF3BE000BF94F8280014
:104CF00020F0010084F8280033E000BF94F8280079
:104D000040F0010084F828000498A061A06908B16F
:104D1000012000E0002050B900BF502080F311882E
:104D2000BFF34F8FBFF36F8F00BF00BFFEE7A069D7
:104D300041192B462A462046FFF7EEFE11E094F873
:104D4000280000F0020018B9204600F0A7FA05E09C
:104D500094F8280020F0010084F8280001E0FFE723
:104D600000BF00BF002203A90448006800F078FFDC
:104D700000287FF456AF07B0F0BD00007800002097
:104D8000F8B505460C4600F03FFC684600F04CF8CC
:104D90000646009820BB44B9B54206D801F0D6FBC0
:104DA00031462846FFF700FF1CE03CB10E48006882
:104DB000006808B9012000E000200446A91B224633
:104DC0000A48006800F022FB01F0C0FB50B94FF028
:104DD000805007490860BFF34F8FBFF36F8F01E02A
:104DE00001F0B4FBF8BD0000740000207800002042
:104DF00004ED00E00A490968096809B9012100E0E9
:104E0000002121B14FF0FF31064A116006E004494C
:104E10000968C968C868034A4168116070470000A2
:104E2000380000206400002070B5044601F0F8F955
:104E3000054607480068854204D200F00BF80120BF
:104E4000206001E00020206001480560284670BD18
:104E5000800000202DE9F84334E025480068C06850
:104E6000056823480068C068C468201D00F06CF91C
:104E70002046216A884794F8280000F0040008B30F
:104E8000A0694619AE4207D966602461211D184801
:104E9000006800F095F915E0002003462A46014617
:104EA0000090204601F010FC074657B900BF502083
:104EB00080F31188BFF34F8FBFF36F8F00BF00BF28
:104EC000FEE700BF0A480068006808B9012000E05A
:104ED00000200028C1D00648D0F8008005480068AE
:104EE000034908600348C0F80080BDE8F88300006B
:104EF00070000020740000200E480068401C08B9B3
:104F0000012000E0002050B900BF502080F311883C
:104F1000BFF34F8FBFF36F8F00BF00BFFEE700BF2F
:104F2000502080F31188BFF34F8FBFF36F8F00BF06
:104F300000BFFEE7A800002008B500BF6846FFF7E5
:104F4000A9FC044620460099FFF71AFFFFF766FE0A
:104F5000F4E770B5044600F059F994F9455010E0B3
:104F6000606A08B9012000E0002038B904F124008B
:104F700001F0A0FA18B100F0A9FA00E003E0681E01
:104F800045B2002DECDC00BFFF2084F8450000F0A6
:104F900067F900F03BF994F9445010E0206908B932
:104FA000012000E0002048B904F1100001F082FA6D
:104FB00008B100F08BFA681E45B200E001E0002D58
:104FC000ECDC00BFFF2084F8440000F049F970BD1C
:104FD0002DE9F04104464FF0000800F015FB494868
:104FE000006808B9FFF76AFC4748006820400028BD
:104FF00070D1D4B1083404F00700B0B104F0070058
:10500000C0F10800044404F0070008B9012000E0E2
:10501000002050B900BF502080F31188BFF34F8F9C
:10502000BFF36F8F00BF00BFFEE7002C52D03748A0
:10503000006884424ED8364E3046056801E02E4660
:105040002D686868A04202D228680028F7D12D4850
:10505000006885423ED0306800F10808286830605A
:105060006868001B102819D92F1907F0070008B924
:10507000012000E0002050B900BF502080F31188CB
:10508000BFF34F8FBFF36F8F00BF00BFFEE76868AD
:10509000001B78606C603846FFF70AFD1B496868A2
:1050A0000968081A1949086008460068194909681A
:1050B000884203D21548006816490860124968689A
:1050C0000968084368600020286013480068401C95
:1050D0001149086001F03AFA08F0070008B9012008
:1050E00000E0002050B900BF502080F31188BFF3CA
:1050F0004F8FBFF36F8F00BF00BFFEE74046BDE894
:10510000F081000090000020A40000209400002006
:1051100088000020980000209C000020001F4FF015
:1051200080730360001F21F001030360001F054B23
:10513000036014380260001F6FF002030360203820
:1051400070470000F94E000801460A69D1E90130B4
:105150009860D1E9010358605068884201D188689D
:105160005060002008611068401E10601068704791
:10517000034B0360034B0B608023136070470000F8
:1051800048080020A4080020034B0360034B0B6079
:105190004FF4807313607047A40A0020000B0020B6
:1051A00000F1080141604FF0FF31816000F108011A
:1051B000C1600161002101607047002101617047F9
:1051C00010B502460B685C1C0CB9106907E002F1CF
:1051D000080000E04068446824689C42FAD94468AA
:1051E0004C604C68A160886041600A611468641C6E
:1051F000146010BD42684A6093688B609368596080
:105200009160086103685B1C0360704700BF502019
:1052100080F31188BFF34F8FBFF36F8F00BF0E482D
:105220000068401C0C49086008460068012812D13B
:105230000A480068C0B208B9012000E0002050B957
:1052400000BF502080F31188BFF34F8FBFF36F8FE3
:1052500000BF00BFFEE77047A800002004ED00E09B
:105260000D48006850B900BF502080F31188BFF38B
:105270004F8FBFF36F8F00BF00BFFEE70648006887
:10528000401E054908600846006820B9002080F3E8
:10529000118800BF00BF7047A800002070B5064607
:1052A0003546002E44D0083D2C46224960680968E6
:1052B000084008B1012000E0002050B900BF502094
:1052C00080F31188BFF34F8FBFF36F8F00BF00BF14
:1052D000FEE7206808B9012000E0002050B900BFB7
:1052E000502080F31188BFF34F8FBFF36F8F00BF43
:1052F00000BFFEE70F49606809680840C0B1206838
:10530000B0B90C49606809688843606000F07CF9B6
:105310000949606809680844074908602046FFF7A2
:10532000C7FB06480068401C0449086001F00EF9FC
:1053300070BD0000A400002094000020A000002008
:1053400000204FF0E02108618861064800684FF4B2
:105350007A71B0FBF1F0401E4FF0E0214861072068
:10536000086170473000002070B5FAF77DFF0446F1
:10537000102C16D304F1E02090F8F0531548007873
:10538000854201DB012000E0002050B900BF502021
:1053900080F31188BFF34F8FBFF36F8F00BF00BF43
:1053A000FEE70D48006800F4E0600C490968884297
:1053B00001D8012000E0002050B900BF502080F348
:1053C0001188BFF34F8FBFF36F8F00BF00BFFEE7A1
:1053D00070BD0000AC0000200CED00E0B00000202B
:1053E000024600200BE0084B53F8303033B9064B2F
:1053F00043F8301003EBC0035A6002E0401C082859
:10540000F1D300BF704700002C0200202DE9F041CD
:1054100005460E4617462C46FFF7F8FE94F9440061
:10542000401C10B9002084F8440094F94500401C49
:1054300010B9002084F84500FFF712FFA06B28B9CF
:105440003A46314604F1240000F062F82046FFF7A6
:1054500080FDBDE8F081000070B504460025D4B1A0
:105460001248006808B9012000E0002050B900BFD0
:10547000502080F31188BFF34F8FBFF36F8F00BFB1
:1054800000BFFEE700F0C0F800212046FFF78EF8CD
:1054900001F05CF805463DB94FF0805004490860C2
:1054A000BFF34F8FBFF36F8F70BD00006C00002003
:1054B00004ED00E00349096801600349096841609F
:1054C000704700005C0000204800002001200149D6
:1054D000086070475800002070B504460D4654B966
:1054E00000BF502080F31188BFF34F8FBFF36F8F41
:1054F00000BF00BFFEE70548016818312046FFF7EE
:105500005FFE01212846FFF751F870BD34000020EE
:1055100070B505460E46144655B900BF502080F3BD
:105520001188BFF34F8FBFF36F8F00BF00BFFEE73F
:105530000648016818312846FFF75CFE0CB14FF0B1
:10554000FF3621463046FFF731F870BD34000020A9
:1055500010B586B000200590049003AA04A905A800
:10556000FFF706FE0022DDE904101346CDE9002115
:1055700002901EA11F48039A00F09EFC1E4908607D
:105580000846006808B1012400E00024012C02D183
:1055900001F05EF80446012C15D100BF502080F3C5
:1055A0001188BFF34F8FBFF36F8F00BF4FF0FF30F5
:1055B0001249086001201249086000201149086062
:1055C00000F072F810E0601C08B1012000E000203B
:1055D00050B900BF502080F31188BFF34F8FBFF345
:1055E0006F8F00BF00BFFEE706B010BD49444C45B9
:1055F0000000000039490008680000206400002015
:10560000500000204800002002480068401C01496A
:10561000086070476C0000201E48006818B1012027
:105620001D49086034E000201B4908601B480168E0
:105630000CE051B900BF502080F31188BFF34F8FA9
:10564000BFF36F8F00BF00BFFEE7491E01EB810073
:10565000134A52F8200008B9012000E00020002879
:10566000E7D101EB81020E4B03EB820042685268E6
:10567000426000F108024368934202D142685268D6
:1056800042604268D268074B1A600448016000BF5C
:10569000704700006C000020580000204C000020E3
:1056A0006C020020340000201CB5524800685249AA
:1056B000884201D0012000E0002050B900BF5020F6
:1056C00080F31188BFF34F8FBFF36F8F00BF00BF10
:1056D000FEE7484800684849491E884201D0012039
:1056E00000E0002050B900BF502080F31188BFF3C4
:1056F0004F8FBFF36F8F00BF00BFFEE73F490846E3
:1057000000780190FF200A4610700846007800904B
:105710009DF8000000F0F0009DF80020904201D1BB
:10572000012000E0002050B900BF502080F3118814
:10573000BFF34F8FBFF36F8F00BF00BFFEE79DF831
:10574000000000F050002E4A107007202D4A106013
:1057500009E02C480068401E2A4A10609DF80000AD
:105760004006000E00909DF8000000F080008028A8
:10577000EFD024480068C0F10700042801D10120BF
:1057800000E0002050B900BF502080F31188BFF323
:105790004F8FBFF36F8F00BF00BFFEE7194800684F
:1057A0000002184A10601046008800F4E0601060A3
:1057B000124A019810700F482030006840F47000C1
:1057C0000C49203108600846006840F070400860CD
:1057D000FFF7B6FD00200C490860FAF70DFD0B48F5
:1057E000006840F0404009490860FAF7F1FC0020E9
:1057F0001CBD000000ED00E071C20F4100E400E0BC
:10580000AC000020B0000020A800002034EF00E031
:1058100010B500BF502080F31188BFF34F8FBFF346
:105820006F8F00BF00F002FD18B14FF080500449A7
:10583000086000BF002080F3118800BF10BD000089
:1058400004ED00E02DE9F84380460E4617461D465C
:10585000DDF82090B8F1000F01D0012000E0002019
:1058600050B900BF502080F31188BFF34F8FBFF3B2
:105870006F8F00BF00BFFEE70DB1012000E00020E8
:1058800050B900BF502080F31188BFF34F8FBFF392
:105890006F8F00BF00BFFEE707B10EB1012000E02F
:1058A000002050B900BF502080F31188BFF34F8F04
:1058B000BFF36F8F00BF00BFFEE707B90EB901202D
:1058C00000E0002050B900BF502080F31188BFF3E2
:1058D0004F8FBFF36F8F00BF00BFFEE750200090D7
:1058E0000098502801D1012000E0002050B900BFED
:1058F000502080F31188BFF34F8FBFF36F8F00BF2D
:1059000000BFFEE700BF2C464CB1012084F84600E2
:105910004B463A46314640460094FFF721F8204670
:10592000BDE8F88370B505460E462C4654B900BF55
:10593000502080F31188BFF34F8FBFF36F8F00BFEC
:1059400000BFFEE7FFF762FCD4E90F12206801FBFD
:105950000200A0600020A06320686060E06B401E31
:10596000226C216800FB0211E160FF2084F84400F2
:1059700084F845009EB9206908B9012000E00020A4
:10598000A8B904F1100000F095FD80B14FF08050EF
:1059900009490860BFF34F8FBFF36F8F07E004F131
:1059A0001000FFF7FDFB04F12400FFF7F9FBFFF700
:1059B00057FC012070BD000004ED00E02DE9FF431D
:1059C00083B0064688461D464FF00009344654B958
:1059D00000BF502080F31188BFF34F8FBFF36F8F4C
:1059E00000BF00BFFEE7B8F1000F01D1206C08B97D
:1059F000012000E0002050B900BF502080F3118842
:105A0000BFF34F8FBFF36F8F00BF00BFFEE7022DC4
:105A100002D1E06B012801D1012000E0002050B943
:105A200000BF502080F31188BFF34F8FBFF36F8FFB
:105A300000BF00BFFEE700F0E3FB08B9059808B916
:105A4000012000E0002050B900BF502080F31188F1
:105A5000BFF34F8FBFF36F8F00BF00BFFEE700BFE4
:105A6000FFF7D4FBA06BE16B884201D3022D28D154
:105A70002A4641462046FEF7A6FE0746606A08B958
:105A8000012000E0002068B904F1240000F012FDBC
:105A900088B14FF0805032490860BFF34F8FBFF399
:105AA0006F8F08E03FB14FF080502D490860BFF381
:105AB0004F8FBFF36F8FFFF7D3FB012007B0BDE817
:105AC000F083059818B9FFF7CBFB0020F6E7B9F192
:105AD000000F04D101A8FFF7EDFC4FF00109FFF71B
