:020000040800F2
:1000000098090020B10100080F120008951100089E
:100010000D12000887070008871400080000000080
:1000200000000000000000000000000013120008A3
:1000300089070008000000001112000815120008CE
:10004000CB010008CB010008CB010008CB01000860
:10005000CB010008CB010008CB010008CB01000850
:10006000CB010008CB010008CB010008CB01000840
:10007000CB010008CB010008CB010008CB01000830
:10008000CB010008CB010008CB01000800000000F4
:10009000000000000000000000000000CB0100088C
:1000A000CB010008CB010008CB010008CB01000800
:1000B000CB010008CB010008CB010008CB010008F0
:1000C000CB010008CB010008CB010008CB010008E0
:1000D000CB010008CB010008CB01000800000000A4
:1000E000CB010008CB010008CB0100080000000094
:1000F000000000000000000000000000CB0100082C
:1001000000000000CB010008CB010008CB01000873
:1001100000000000000000000000000000000000DF
:10012000CB010008CB010008CB010008CB0100087F
:10013000CB010008000000000000000000000000EB
:10014000000000000000000000000000CB010008DB
:10015000CB010008CB010008CB010008CB0100084F
:10016000CB010008CB0100080000000000000000E7
:10017000000000000000000000000000000000007F
:1001800000000000CB01000800000000000000009B
:10019000CB010008CB010008DFF810D000F072FAA4
:1001A00000480047E9270008AFF3008098090020C5
:1001B0000648804706480047FEE7FEE7FEE7FEE701
:1001C000FEE7FEE7FEE7FEE7FEE7FEE7A91200080E
:1001D000990100082DE9F05F0546002092469B46F4
:1001E00088460646814640241BE02846414647464D
:1001F000224600F07FF853465A46C01A914110D368
:1002000011461846224600F066F82D1A67EB0108E1
:100210004F4622460120002100F05DF817EB00094F
:100220004E41201EA4F10104DFDC484631462A4637
:100230004346BDE8F09FD2B201E000F8012B491E11
:10024000FBD270470022F6E710B513460A46044673
:100250001946FFF7F0FF204610BD30B505462A4687
:100260000B4612F8010B13F8014B08B1A042F8D06D
:100270001CB1002802D06D1CF1E7284630BD421C9D
:1002800010F8011B0029FBD1801A704730B50546D4
:100290000020034600E05B1C934205D2EC5CC85C86
:1002A000201A01D1002CF6D130BD30B50B460146E5
:1002B00000202022012409E021FA02F59D4205D305
:1002C00003FA02F5491B04FA02F52844151EA2F1AF
:1002D0000102F1DC30BD202A04DB203A00FA02F1F1
:1002E000002070479140C2F1200320FA03F3194324
:1002F00090407047202A04DB203A21FA02F00021C6
:10030000704721FA02F3D040C2F120029140084325
:10031000194670472DE9FE4F804681EA0300C00F61
:100320000C46009021F0004123F00045B8EB02009C
:10033000A94105D24046214690461C460B4602463E
:1003400023F00040104347D0270DC7F30A00C3F342
:100350000A510290401A019040286BDAC3F313004F
:1003600040F4801B0098924620B10023D2EB030A90
:1003700063EB0B0B01985946C0F140025046FFF762
:10038000AAFF06460D4650465946019A00F08CF9E0
:1003900010EB08006141002487EA115284EAE773F8
:1003A0001A4340D0009A62B3019A012A4FEA0752D9
:1003B00015DC001B61EB02014FF0004202EA07521C
:1003C000CDE90042001C41F5801132462B4600F079
:1003D0008CF903B0BDE8F08F40462146F9E7001BD9
:1003E00061EB0201001C41F5801300185B412018ED
:1003F000A2F5001747EB030140EAD570B6196D412D
:1004000011E06D084FEA360645EAC0754FEA07521B
:10041000001B61EB0201001C41F5801149084FEA05
:1004200030000019514132462B4603B0BDE8F04F71
:1004300000F04CB90098012240000023D0EB0202EA
:1004400063EBE073009821464FEAE074B8EB0000DC
:1004500061EB0401E9E783F000435BE781F00041D1
:1004600058E72DE9FE4F81EA030404F0004421F02F
:10047000004100944FF0000B23F0004350EA0104C8
:100480005ED052EA03045BD0C3F30A54C1F30A55A9
:100490002C44A4F2F3340194A0FB0254C1F31301E1
:1004A00041F48011C3F3130343F4801301FB0244AE
:1004B00000FB034E840A970A44EA815447EA8357B3
:1004C000A4FB076802958D0A05FB07854FEA932C6C
:1004D00004FB0C542705029D4FEA065847EA1637DD
:1004E000B5EB08056EEB070C870E920E47EA8117F5
:1004F00042EA8312A7FB0201B6EB0B0164EB000496
:100500002B0D43EA0C335E1844EB1C50DA4651467F
:10051000E7FB0201C5F313044FEA0B3343EA14531C
:100520004FEA0432019C43EA0603A4F10C0402944E
:10053000009CCDE900B400F0D8F803B0BDE8F08F1E
:1005400000200146F9E72DE9F04D81EA030404F0AB
:10055000004B21F0004514464FF0000A23F0004103
:1005600050EA050220D054EA01021DD0C5F30A5713
:100570000246C5F31303C1F31300C1F30A5640F456
:10058000801543F48013A7EB0608101BD64608F22B
:10059000FD3873EB050002D308F1010801E0921861
:1005A0005B41B8F1000F03DA00200146BDE8F08D91
:1005B00000204FF48011064684460EE0171B73EBB3
:1005C000050705D3121B63EB050306434CEA010C38
:1005D00049084FEA300092185B4150EA0107EDD11B
:1005E00052EA030012D082EA040083EA05010843BC
:1005F00005D0101BAB4106D20122002306E00022E9
:100600004FF0004302E06FF0010253101AEB0600B6
:100610004CEB085110EB0A0041EB0B01BDE8F04D2B
:1006200000F054B8C1F30A52C1F3130140F2FF3392
:1006300041F480119A4202DA00200146704740F2EC
:1006400033439A42A2F2334202DC5242FFF752BED7
:10065000FFF741BE30B5041E71F1000404DB4FF01A
:100660000044404264EB0101141E73F1000405DBF9
:100670001C464FF00043524263EB0403994208BF0B
:10068000904230BD064C074D06E0E06840F00103A3
:1006900094E8070098471034AC42F6D3FFF780FD8A
:1006A0000C2A00082C2A0008202A06DBCB17203A47
:1006B00041FA02F043EAE07306E041FA02F3D04067
:1006C000C2F12002914008431946704710B5141E2C
:1006D00073F1000408DA401C41F1000192185B41FB
:1006E0001A4301D120F0010010BD2DE9F04D9246D2
:1006F0009B4611B1B1FA81F202E0B0FA80F22032E9
:100700009046FFF7E8FD04460F4640EA0A0041EA3A
:100710000B0153465A46084313D0114653EA0100D1
:1007200019D0C8F140025046FFF7E4FD05460E46D9
:10073000504659464246FFF7CEFD084305D00120FA
:1007400004E020463946BDE8F08D0020054346EA26
:10075000E0762C4337430A986305E40AA0EB0800CF
:100760000022FD0A44EA47540A3002D5002001461F
:10077000E9E7010510196941DDE9084500196941FA
:10078000BDE8F04DA2E7FEE7704772B6FEE7000055
:1007900070B5044600F0FEF80546601C02D004481F
:1007A0000078044400F0F6F8401BA042FAD370BD74
:1007B000000000202DE9F84FDFF8B8A10022012445
:1007C00003254FF00F090AF1040BAAF1040E00BF34
:1007D0000B6804FA02F63340B34273D10F7907F085
:1007E0000307012F01D0022F16D187684FEA420874
:1007F00005FA08FC27EA0C07D1F80CC00CFA08FC33
:100800004CEA070CC0F808C04768B7430E79C6F336
:10081000001696403E4346600E79F643B6070DD06B
:10082000C768560005FA06FC27EA0C07D1F808C08D
:100830000CFA06FC4CEA070CC0F80CC00E7906F066
:100840000306022E10D1D60800EB8608D8F82060E7
:1008500057074FEAD76C09FA0CF7BE430F6907FA3E
:100860000CF73743C8F8207006684FEA420C05FAC7
:100870000CF7BE430F7907F0030707FA0CF737436D
:1008800007604E6816F4403F6DD03B4E376847F422
:1008900080473760366822F0030706F480460096EA
:1008A000364E07EB060CDCF8086897073F0F09FA8D
:1008B00007F826EA0806DFF8C880404503D14FF064
:1008C00000081EE04FE0DFF8BC80404502D14FF049
:1008D000010816E0DFF8B080404502D14FF0020871
:1008E0000FE0DFF8A880404502D14FF0030808E090
:1008F000DFF89C80404502D14FF0040801E04FF042
:10090000070808FA07F848EA0608CCF80888DAF871
:1009100000605746D1F804C09E435FEACC2C00D556
:100920001E433E60DBF800605F46D1F804C09E4382
:100930005FEA8C2C00D51E433E60DEF800607746EF
:10094000D1F804C09E435FEA8C3C00D51E433E6054
:10095000084F083F3E68D1F804C09E435FEACC3C94
:1009600000D51E433E60521C102AFFF431AFBDE893
:10097000F88F0000083C014044380240003001403C
:10098000000002400004024000080240000C024047
:1009900000100240014880687047000000000020FD
:1009A000024881680278114481607047000000208D
:1009B0000B4810B5016841F400710160016841F411
:1009C00080610160016841F480710160032000F0E2
:1009D00061F80F2000F006F800F024F8002010BDA8
:1009E000003C024070B50D4D04464FF47A712878F2
:1009F000B1FBF0F00A490968B1FBF0F000F0FEFA33
:100A000048B9102C07D200222146501E00F022F8CF
:100A100000206C6070BD012070BD0000000000204F
:100A20000C0000200A4808B5016841F480410160CB
:100A3000006800F4804000900548001F016841F004
:100A400080510160006800F08050009008BD0000F7
:100A500044380240F0B40E4B1B680C46C3F302232B
:100A6000C3F10705042D00D90425191D072901D25A
:100A7000002300E0DB1E012606FA05F1491E214095
:100A800099409E40761E16403143F0BC00F040BDB8
:100A90000CED00E0064900F0070208684FF6FF037E
:100AA000184040EA0220034A1043086070470000E3
:100AB0000CED00E00000FA052DE9F0470E460500B8
:100AC00065D0DFF81481D8F80000F7B200F0070015
:100AD000B04207D288F80070D8F8000000F0070094
:100AE000B04254D128683D4C810712D5400703D548
:100AF000206840F4E05020602878000703D5206883
:100B000040F4604020602068A96820F0F0000843AD
:100B100020602878C0072DD030496868083901283E
:100B200012D0022813D0032811D0096889070029A0
:100B30002DDA216821F0030101432160FFF72AFF2C
:100B4000814641F2883A0EE009688903EFE70968B7
:100B50008901ECE7FFF71EFFA0EB0901514502D91F
:100B60000320BDE8F0872068696800F00C00B0EB56
:100B7000810FEFD1D8F80010404601F00701B142D3
:100B800007D90770006800F00700B04201D00120CB
:100B9000E7E72878400705D52068E96820F4E050A9
:100BA000084320602878000706D52068296920F4CA
:100BB000604040EAC100206000F038F82168084A2F
:100BC000C1F30311515CC84006490860064800683B
:100BD000FFF708FF0020C4E7003C0240083802404D
:100BE000A72800080C000020040000200448054944
:100BF00000680968044AC1F38221515CC84070470B
:100C00000C00002008380240B728000804480549B5
:100C100000680968044AC1F34231515CC84070471A
:100C20000C00002008380240B7280008154810B50D
:100C3000006810F00C02144813D01449042A0FD095
:100C4000082A0ED10F4C241F2268236802F03F02AD
:100C50005B0207D52068C0F38810A0FB010106E005
:100C6000084610BD2168C1F38811A1FB00010023D3
:100C7000FFF7B0FA2168C1F30141491C4900B0FBFC
:100C8000F1F010BD083802400024F40040787D01E6
:100C90002DE9F84F04006ED02078DFF84C93C007A0
:100CA000A9F104054AD009F104000168C1F38101EA
:100CB000012908D00068C0F3810002280AD1D9F8C0
:100CC0000000400206D52868800337D560680028F8
:100CD000E1D033E06068B0F5803F10D0B0F5A02FD0
:100CE000286810D020F480302860286820F4802004
:100CF00028606068A8B1FFF74DFE06460DE0286841
:100D000040F48030F4E740F480202860F7E700BF2B
:100D1000FFF740FE801B642873D828688003F7D54E
:100D20000CE0FFF737FE064605E000BFFFF732FE96
:100D3000801B6428F0D828688003F7D42078DFF877
:100D4000AC8280074FF0000A3ED5A748001D01681D
:100D500011F00C0F08D00068C0F3810002280BD1FD
:100D6000D9F80000400207D42868800716D5E0684B
:100D7000012800D112E033E1E068B8B10120C8F8E1
:100D80000000FFF707FE064605E000BFFFF702FE82
:100D9000801B0228C0D828688007F7D528682169F9
:100DA00020F0F80040EAC10028600DE0C8F800A07B
:100DB000FFF7F0FD064604E0FFF7ECFD801B02287C
:100DC0001FD828688007F7D42078000722D5864FDF
:100DD00087486169703771B101210160FFF7DAFD61
:100DE000064604E0FFF7D6FD801B022809D83868C4
:100DF0008007F7D50EE0C0F800A0FFF7CBFD064650
:100E000005E082E0FFF7C6FD801B02287DD8386828
:100E10008007F7D42078400768D5DFF8CCB10027E9
:100E20000BF13C0BDBF80000C0000BD4DBF800102A
:100E300041F08051CBF80010DBF80000012700F0F2
:100E4000805000906B4E3068C00510D4306840F47C
:100E500080703060FFF79EFD009005E0FFF79AFD7F
:100E60000099401A022850D83068C005F6D55E4E69
:100E7000A0686C3601280FD00528306810D020F00B
:100E800001003060306820F004003060A068B8B124
:100E9000FFF780FD00900FE0306840F00100F4E7BC
:100EA00040F004003060F7E7FFF774FD0099411A45
:100EB00041F28830814266D830688007F4D50EE070
:100EC000FFF768FD009007E0FFF764FD0099411A05
:100ED00041F28830814256D830688007F4D42FB16F
:100EE000DBF8001021F08051CBF80010A069C8B3E6
:100EF0003D49091D0968C1F3810102294AD0022830
:100F0000504607D0C8F8600000E03CE0FFF742FD23
:100F100004463BE04746C8F86000FFF73BFD064645
:100F200005E000BFFFF736FD801B02282BD828689C
:100F30008001F7D4D4E907010843A16A2E4A490881
:100F400002EB0141626A41EA8211084394F82C10D5
:100F500040EA0161C9F8001001203866FFF71AFD68
:100F6000044606E03EE000BFFFF714FD001B022828
:100F700009D828688001F7D534E000BFFFF70AFDE3
:100F8000001B022802D90320BDE8F88F28688001E1
:100F9000F4D427E00128F7D0D9F80000E26900F482
:100FA000800191421CD1226A00F03F01914217D189
:100FB00047F6C071626A0140B1EB821F10D1A26A8C
:100FC0004FF0FF3300F4403103EB5202B1EB024F1C
:100FD00006D194F82C1000F07060B0EB016F01D0D6
:100FE0000120D1E70020CFE704380240000047424B
:100FF000800E4742007000400000FFFF10B5401E09
:10100000B0F1807F01D3012010BD4FF0E02460617A
:101010000F21601700F07CFA0020A06107202061FA
:10102000002010BD70B5040004D094F841000025E4
:1010300010B106E0012070BD84F84050204600F059
:1010400023F8242084F841002068C16821F400516D
:10105000C160204600F058F92068016921F49041F0
:1010600001612068416921F02A0141612068C1685D
:1010700041F40051C1606564202084F8410084F887
:1010800042006563002070BD10B586B0044614218F
:101090006846FFF7D7F814492068884221D11348E1
:1010A0000021026842F010020260006800F01000A7
:1010B00005900E481438026842F001020260006890
:1010C00000F0010005904FF4C06000900220CDE9CF
:1010D0000101032003900720049069460448FFF7AC
:1010E00069FB06B010BD000000100140443802400A
:1010F000000002402DE9F843044690F8410098466C
:1011000016460D46202802D00220BDE8F88385B19E
:101110007EB100206064212084F84100FFF73AFC92
:10112000A6848146E684A0682027B0F5805F02D0BF
:1011300003E00120E9E7206910B12E4600250EE00A
:1011400000260CE08021204600F064F9A8B9C6B161
:1011500016F8010B21684860E08C401EE084E08CAA
:101160004B464FF00002CDF800800028EAD14FF046
:101170004001204600F04EF940B184F84170032050
:10118000C3E735F8020BC0F30800E3E784F84170C9
:101190000020BAE7FEE700000D4808B5016841F0FD
:1011A00004010160016801F004010091016841F04F
:1011B00080010160016801F080010091016841F047
:1011C00001010160006800F00100009008BD00000E
:1011D000303802400C4810B50A4901604FF4E13143
:1011E0004160002181600C22C160C0E9041281616C
:1011F000C161FFF717FF002803D0BDE81040FFF7DB
:10120000C4BA10BD0010014048000020FEE7FEE710
:1012100070477047FFF7C4BB30B593B030216846C4
:10122000FFF710F814210CA8FFF70CF81C48002455
:10123000016841F080510160006800F08050119019
:101240001848016841F4404101600068022500F43B
:1012500040401190012003901020049000950695C5
:101260000820CDE907406420CDE9090504200B9052
:101270006846FFF70DFD08B172B6FEE70F20CDE915
:101280000C054FF48050CDE90E4003210CA81094BA
:10129000FFF712FC002801D072B6FEE713B030BD94
:1012A00040380240007000400248016841F470017B
:1012B0000160704788ED00E001680C3151E8002FB3
:1012C00022F4907241E80023002BF5D1016814311B
:1012D00051E8002F22F0010241E80023002BF5D154
:1012E000016B012909D101680C3151E8002F22F06E
:1012F000100241E80023002BF5D1202180F8421094
:10130000002101637047000070B504460068016960
:10131000E26821F44051114301612169A068E2694A
:1013200008436169114308432168CA6849F20C63A4
:101330009A430243CA6020684169A26921F440715E
:101340001143416131492068884202D030498842C6
:1013500002D1FFF75BFC01E0FFF748FCE2690023E4
:10136000192164253226B2F5004F626828D0A0FB0F
:101370000101930F9200FEF72DFF0146B0FBF5F03F
:101380006FF01802504301EB800006EB0010B0FB39
:10139000F5F000F0F002B1FBF5F002EB0012B1FB4A
:1013A000F5F06FF01803584301EB800006EB0010D6
:1013B000B0FBF5F000F00F0021681044886070BDAC
:1013C000A0FB010192185B41FEF704FF0146B0FB50
:1013D000F5F00201B1FBF5F06FF01803584301EB93
:1013E000800006EBC000B0FBF5F000F0F80002EB67
:1013F0004002B1FBF5F0584301EB800006EBC00062
:10140000B0FBF5F000F00700D6E700000010014047
:10141000001401402DE9F843984617460D4604464E
:10142000089E24E0701C22D0FFF7B4FAA0EB08005D
:10143000B0421AD8CEB12068C168490717D5802DAF
:1014400015D0402D13D00168C94309070FD4016896
:101450000025406800902046FFF72EFF08206064BA
:1014600084F840500120BDE8F8830320FBE72068A2
:10147000006835EA000004D00020B842D2D0002035
:10148000F1E70120F9E7FEE70FB4054B10B503A91A
:10149000044A029800F01EF910BC5DF814FB00002D
:1014A000E5260008440000200FB47CB50C0009AD0F
:1014B00001D0611E00E00021CDE90001064B6A4623
:1014C0002946089800F006F9002C02D0009A002165
:1014D00011707CBC5DF814FBDB1D00087CB50C00B2
:1014E0001D461646014601D0601E00E00020CDE9F1
:1014F0000010064B6A462946304600F0EBF8002CF7
:1015000002D0009A002111707CBD0000DB1D000894
:101510000907090E002804DB00F1E02080F8001420
:10152000704700F00F0000F1E02080F8141D7047B4
:1015300002E008C8121F08C1002AFAD1704770479C
:10154000002001E001C1121F002AFBD170470000FA
:101550002DE9FF5F82B00021DDE90430020DDDF8E6
:1015600040B0034318D044F61050A2F2FF32424379
:101570001514119801281FD0A5EB0B00401C5FEA41
:10158000000A4FF000064E4FDFF83891B046504643
:1015900015D5CAF1000413E0119801244AA30128CB
:1015A00001D16FEA0B010298119AC0E90031C0E93C
:1015B000024206B0BDE8F09FCBF10000DFE7044631
:1015C0000021404A491842EB0450CDE9001012E0D6
:1015D000E00707D032463B4640464946FEF741FF0A
:1015E0008046894632463B4610461946FEF739FF8B
:1015F00006460F466410002CEAD1DDE90401DDE95E
:101600000023BAF1000F06DAFEF72BFF42464B46E5
:10161000FEF727FF05E0FEF796FF42464B46FEF732
:1016200092FF04460E460022284BFFF713F803D81A
:101630004FF0FF30014607E00022254B204631469F
:10164000FEF768FEFEF7EEFF102409E0002C0ADB2F
:101650000A220023FEF7BEFD039B30321A55641E9A
:1016600050EA0102F2D1641C039AC4F1110314443C
:10167000119A012A03D0012208430DD10AE0084340
:1016800004D000204FF0110B119072E7A3EB0B0573
:101690006D1E0DE05B4504DD4FF0000205F1010514
:1016A00004E003DA4FF00002A5F10105002AECD0B6
:1016B00002981199C0E90231C0E9004579E70000BC
:1016C000000014400000F03F300000000000F04334
:1016D0000000E03F2DE9FF4F95B09A468846064648
:1016E0000025EEE1252877D100242746F94A01217B
:1016F000039400E0044316F8013F203B01FA03F095
:101700001042F7D130782A2811D06FF02F033078AB
:10171000A0F13002092A16D8039A44F0020402EB21
:10172000820203EB42021044761C0390EFE758F864
:10173000042B0392002A03DA504244F4005403902D
:1017400044F00204761C30782E2816D116F8010FCA
:1017500044F004042A280DD06FF02F023078A0F155
:101760003003092B09D807EB870302EB4303C718A3
:10177000761CF3E758F8047B761C30786C280FD081
:1017800006DC4C2817D068280DD06A2814D104E054
:10179000742810D07A280FD10DE044F400140AE028
:1017A00044F4801401E044F440147278824202D17F
:1017B00004F58014761C761C307866280BD013DC78
:1017C000582877D009DC002875D04528F6D046285F
:1017D000F4D047281AD193E118E0632835D0642863
:1017E00079D0652812D18BE1702873D008DC672886
:1017F000F1D069286FD06E280DD06F2806D1ACE0EB
:1018000073282CD0752874D0782853D05246179955
:1018100090476D1C54E1C4F30250022809D00328FC
:101820000DD0D8F8001004280DD00D6008F1040880
:1018300046E1D8F80010EA17C1E90052F6E7D8F8F7
:1018400000100D80F2E70D70F0E718F8041B8DF81A
:10185000001000208DF80100EB46012003E058F84D
:1018600004BB4FF0FF3061074FF0000102D40DE0E0
:1018700009F101018946B9420FDA8145F8DB1BF80D
:1018800009100029F4D108E009F1010189468142DB
:10189000FADB1BF809100029F6D103985346A0EB98
:1018A000090721463846179A00F080FA284400EBD1
:1018B000090507E044E008E10DE01BF8010B524682
:1018C00017999047B9F10109F7D253462146384696
:1018D000179AF2E039E00A21C4F302524FF0000BEC
:1018E0000091022A06D058F8040BC117032A09D028
:1018F0000AE023E008F1070020F00702F2E8020105
:10190000904605E000B2C117042A01D140B2C117C8
:10191000002906DA0A460021404261EB02012D222D
:1019200002E0220504D52B228DF80420012203E0D9
:10193000E20701D02022F7E7914657E00A2100E0B4
:1019400010214FF0000B00910BE010214FF0000B25
:1019500044F004040827009103E008204FF0000B36
:101960000090C4F30252022A05D058F8040B00215B
:10197000032A08D008E008F1070020F00702F2E887
:101980000201904603E080B2042A00D1C0B24FF0B9
:10199000000922072AD53278702A07D0DDF800C066
:1019A0008CF0100C5CEA0B0C05D00EE040228DF898
:1019B0000420012208E050EA010306D030238DF80C
:1019C00004308DF8052002229146009B83F0080325
:1019D00053EA0B030AD150EA010201D1620705D58F
:1019E00030228DF804204FF001097F1E3278582AEA
:1019F00004D039A20C920CAA02920BE03BA2F9E7A8
:101A00005B46009AFEF7E6FB0C9B9B5C029A521E1B
:101A10000292137050EA0102F2D1029804A9081A46
:101A200000F1200B600702D524F4803400E0012788
:101A30005F4502DDA7EB0B0000E0002000EB0B018F
:101A4000009003984944401A0390E00306D453469B
:101A50002146179A039800F0A9F90544002706E0EB
:101A600001A85246C05D179990476D1C7F1C4F45D9
:101A7000F6DBE0030CD553462146179A039800F095
:101A800095F9054404E030205246179990476D1CA3
:101A90000099481E00900029F5DC08E002980299A0
:101AA00052460078491C0291179990476D1CBBF172
:101AB0000001ABF1010BF1DC5BE100F065F90544DD
:101AC000761C307800287FF40DAE19B02846BDE8AA
:101AD000F08F0000092801003031323334353637B9
:101AE000383961626364656600000000303132336A
:101AF000343536373839414243444546000000000A
:101B0000600700D4062708F1070020F00700F0E87E
:101B10000223804603F0004C5FEA0C0001D097A03E
:101B200009E0200501D596A005E0E00701D095A0C9
:101B300001E0AFF24C001390307823F000436528A9
:101B40000CD006DC452809D046281DD047287FD177
:101B50003BE0662818D067287AD136E00021112FA3
:101B600001DB112000E0781CCDE9000104A90CA8DC
:101B7000FFF7EEFCDDE90D010C9A4FF0000B07F1C9
:101B80000109109200914EE04FF000400097CDE91E
:101B9000011004A90CA8FFF7DBFCDDE90D020C9B8A
:101BA0000F994FF0000B91461093009211B9791CD8
:101BB00000EB0109B7EB090003D4C0F1FF3B07F1CB
:101BC0000109A9EB0700019042E0012F00DA01278B
:101BD0000021112F01DD112000E03846CDE9000180
:101BE00004A90CA8FFF7B4FCDDE90D010C9A0091E3
:101BF0004FF0000BB946109221070FD4009A4A45C6
:101C000003DA914601E0A9F10109B9F1010F05DDFF
:101C1000109AA9F10101515C3029F4D0B84202DADE
:101C200010F1040F03DA0121CDE9011010E00028C2
:101C300003DC8344A9EB000102E0411C494500DDBF
:101C40008946A0EB0B00401C01904FF00040029031
:101C5000200705D40198484502DB4FF0FF30019082
:101C600000208DF84B0002980DF14B07B0F1004FAA
:101C700025D002200C902B200D90029800280CDA21
:101C8000404202902D200D9007E00A210298FEF7B5
:101C90000CFB3031029007F8011D0C99481E0C9086
:101CA0000029F2DC02980028EFD1791E0D98087007
:101CB000307800F0200040F0450007F8020D11A830
:101CC000C01BC01D02901398007800B1012000EBEA
:101CD0000901019801EBE071029801440398401A50
:101CE000401E0390E00306D453462146179A0398FA
:101CF00000F05CF805441398007818B15246179923
:101D000090476D1CE00323D553462146179A03984C
:101D100000F04CF805441BE0BBF1000F07DB009816
:101D2000584504DD1098179910F80B0001E0179939
:101D300030205246904701980BF1010B401E05F1EF
:101D40000105019004D12E205246179990476D1C31
:101D5000B9F10001A9F10109DEDC05E017F8010B7A
:101D60005246179990476D1C0299481E029000290F
:101D7000F4DC53462146179A03989EE62D00000096
:101D80002B000000200000002DE9F0410446002552
:101D90001E461746880404D405E039462020B04783
:101DA0006D1C641EF9D52846BDE8F0812DE9F0418F
:101DB000044600251E469046C80301D5302700E0A2
:101DC0002027880404D505E041463846B0476D1CFD
:101DD000641EF9D52846BDE8F0814A68002A06D07D
:101DE0000A68531C0B6010704868401E48607047BA
:101DF00010B500F095F8E721002000F04FFBE72137
:101E0000042000F04BFBE721012000F047FBE72115
:101E1000032000F043FBE721022000F03FFBBDE878
:101E2000104000F09BBB0000F0B585B0070007D163
:101E30001F484FF4F0720368A3B11E491EA09847D3
:101E4000224D0024052695F8F000002819D000F056
:101E50006BFA00BF04EB4410411991F851000128BE
:101E600012D017E01348CDE90302009212A118A383
:101E7000CDE9013103461FA227A1002000F084F81C
:101E8000FEE705B03046F0BD1E2238463231FEF77F
:101E9000FDF930B1641CE4B2052CDBD300F06AFA22
:101EA000EFE704EB4410284490F83160F6E70000B7
:101EB000100000205129000874616720213D20286E
:101EC00028766F6964202A293029000090040020B8
:101ED00028257329206861732061737365727420EB
:101EE0006661696C65642061742025733A256C64B1
:101EF0002E0000002E2E5C4D6964646C6577617263
:101F0000655C456173796C6F675C7372635C656C6B
:101F10006F672E6300000000656C6F6700000000B3
:101F20002DE9F041174D002095F8F010012927D038
:101F300000F04AFA060023D1012000F005FA00273C
:101F400085F8F37085F8F470012085F8F500052018
:101F500000F048FA0024B84604EB4410471907F192
:101F600032001F21FEF76EF9641C87F83180E4B25D
:101F700087F85180052CEFD3012085F8F00030461A
:101F8000BDE8F081900400200FB42DE9F04F064623
:101F90008BB08B460846FEF772F900240A94074678
:101FA000A14609940594069407940894052E08D92F
:101FB000B34840F23E220368002B7DD0B149B2A065
:101FC0009847B84D95F8F100002876D02878B042AF
:101FD00073D35846FFF728FFB0426ED3691C5846AA
:101FE000FEF73BF9002868D00DF1680A00F09CF973
:101FF000A84695F8F500A5F5806570B12946AAA216
:10200000204600F0F3FA04469D4829191C3050F888
:102010002620204600F0EAFA04440121304600F070
:102020006DFB40B196482919001D50F82620204626
:1020300000F0DCFA04440221304600F05FFBC8B136
:1020400029195A46204600F0D1FA04440F2F0BD824
:10205000C7F10F01202205A8FEF7EDF8291905AAFE
:10206000204600F0C3FA0444291990A2204600F04B
:10207000BDFA04441C21304600F040FB00284BD040
:1020800029198BA2204600F0B1FA044404213046FD
:1020900000F034FBA8B100F085F90246291920466A
:1020A00000F0A4FA04441821304600F027FB40B1A8
:1020B00029197EA2204601E035E0DBE000F096FA27
:1020C00004440821304600F019FB90B100F062F999
:1020D00002462919204600F089FA044410213046AE
:1020E00000F00CFB28B1291970A2204600F07EFAFE
:1020F00004441021304600F001FB38B100F04EF9E5
:1021000002462919204600F071FA0444291969A2EF
:10211000204600F06BFA044420213046169A00F065
:1021200051FBE0B90EE05748CDE90302009256A1F9
:1021300061A3CDE90131034668A271A10020FFF738
:1021400023FFFEE740213046179A00F03BFB30B9F1
:1021500080213046189A00F03EFB002856D02919FD
:1021600069A2204600F042FA044420213046169A23
:1021700000F028FBD0B129192046169A00F036FA53
:10218000044440213046179A00F01CFB10B1291975
:102190005EA207E080213046189A00F01CFB28B1AF
:1021A000291942A2204600F021FA04448021304639
:1021B000189A00F010FBB8B155A2052109A8189B88
:1021C000FFF772F9291909AA204600F00FFA044412
:1021D00040213046179A00F0F5FA28B1291933A2A8
:1021E000204600F003FA044440213046179A00F0DC
:1021F000E9FA28B129192046179A00F0F7F90444A2
:10220000291944A2204600F0F1F90444C4F5806184
:1022100028195346199AFFF761F904444FF4806274
:10222000944204D8002802DBA01D904201D940F25C
:10223000FA3498F82000464640B11A4905F804904F
:102240002031A1F58460FEF708F888B196F8F50012
:1022500028B1291930A2204600F0C8F904442919F0
:102260002FA2204600F0C2F901192E4800F0AEF866
:1022700000F080F80BB0BDE8F00F5DF814FB000033
:1022800010000020692900086C6576656C203C3DD3
:1022900020454C4F475F4C564C5F564552424F537A
:1022A00045000000900400201B5B0000200000009F
:1022B0005B0000005D200000282573292068617301
:1022C00020617373657274206661696C6564206156
:1022D000742025733A256C642E0000002E2E5C4D70
:1022E0006964646C65776172655C456173796C6F74
:1022F000675C7372635C656C6F672E63000000003F
:10230000656C6F6700000000280000003A000000C4
:10231000256C6400290000001B5B306D000000008C
:102320000D0A00009000002070B5064C012594F8BD
:10233000F20020B100F052F884F8F45070BD84F837
:10234000F35070BD900400200949002881F8F20084
:102350000DD0074891F8F41090F8F30019B1002857
:1023600005D100F03DB8002801D000F037B8704723
:102370009004002070B5064C002594F8F20020B1BE
:1023800000F02EF884F8F45070BD84F8F35070BD5E
:102390009004002000A070470000000000A07047DB
:1023A0000000000010B5FEF7F5FA034603A20A216B
:1023B0000448FFF779F8034810BD00002530396C58
:1023C000750000008805002000207047024601A02B
:1023D000FFF75AB8252E2A730000000072B6704726
:1023E00062B6704710B586B00446052807D90D4877
:1023F0004FF4AD72036833B10B490CA098471248F3
:10240000047006B010BD0848CDE90302009207A190
:102410000EA3CDE90131034615A21EA10020FFF74E
:10242000B3FDFEE710000020252900086C657665E5
:102430006C203C3D20454C4F475F4C564C5F564509
:1024400052424F5345000000900400202825732974
:102450002068617320617373657274206661696CB2
:1024600065642061742025733A256C642E00000099
:102470002E2E5C4D6964646C65776172655C4561A4
:1024800073796C6F675C7372635C656C6F672E63E6
:1024900000000000656C6F670000000030B585B07B
:1024A0000D460446052807D90E484FF4A07203686C
:1024B0004BB10D490DA09847134800EB8400C0F8BC
:1024C000D85005B030BD0848CDE90302009207A1FD
:1024D0000EA3CDE90131034615A21EA10020FFF78E
:1024E00053FDFEE710000020082900086C657665A2
:1024F0006C203C3D20454C4F475F4C564C5F564549
:1025000052424F53450000009004002028257329B3
:102510002068617320617373657274206661696CF1
:1025200065642061742025733A256C642E000000D8
:102530002E2E5C4D6964646C65776172655C4561E3
:1025400073796C6F675C7372635C656C6F672E6325
:1025500000000000656C6F67000000000EB50A48BF
:1025600090F8F01000290DD0012180F8F11007A299
:1025700008A1F6208DE80700104B11A219A1032035
:10258000FFF702FD0EBD000090040020322E322E17
:1025900039390000456173794C6F67676572205661
:1025A000257320697320696E697469616C697A6545
:1025B00020737563636573732E000000BF280008E5
:1025C0002E2E5C4D6964646C65776172655C456153
:1025D00073796C6F675C7372635C656C6F672E6395
:1025E00000000000656C6F67000000002DE9F043FB
:1025F000DFF88C90DFF88C8085B00D00064614461D
:10260000174606D1D8F800302BB12C2249461EA01F
:1026100098477CB115E01CA202922C20CDE90390D2
:102620001AA3CDE90003164B21A22BA10020FFF72E
:10263000ABFCFEE7D8F800307BB12D22104928A072
:1026400098474FF480622078B0B13146761C9142B1
:1026500012D205F8010B641CF5E721A202922D208D
:10266000CDE9039009A3CDE90003054B10A21AA1FF
:102670000020FFF789FCFEE705B0E01BBDE8F08312
:10268000A129000810000020647374002825732914
:102690002068617320617373657274206661696C70
:1026A00065642061742025733A256C642E00000057
:1026B0002E2E5C4D6964646C65776172655C456162
:1026C00073796C6F675C7372635C656C6F675F7561
:1026D00074696C732E630000656C6F670000000006
:1026E0007372630013B54FF0FF330122694602484D
:1026F000FEF700FD00981CBD4800002030B585B0F5
:102700000D460446052807D9104840F2DF22036829
:1027100063B10F490FA09847154800EB8400D0F82B
:10272000D800284000D0012005B030BD0848CDE9D0
:102730000302009207A10FA3CDE90131034616A2BF
:102740001EA10020FFF720FCFEE700001000002083
:10275000752900086C6576656C203C3D20454C4F22
:10276000475F4C564C5F564552424F534500000060
:1027700090040020282573292068617320617373F9
:10278000657274206661696C6564206174202573CC
:102790003A256C642E0000002E2E5C4D6964646C3A
:1027A00065776172655C456173796C6F675C7372A4
:1027B000635C656C6F672E6300000000656C6F677B
:1027C0000000000010B522B1FFF798FF08B101200A
:1027D00010BD002010BD10B522B1FFF78FFF08B16A
:1027E000012010BD002010BD1CB5FEF7E1F8FEF77A
:1027F00013FDFEF7D1FCFEF7EDFCFFF7F9FA1CA183
:102800007720CDE900011C4B1CA221A10020FFF77D
:10281000BBFB17A17820CDE90001174B17A21CA123
:102820000320FFF7B1FB12A17920CDE90001124B83
:1028300012A217A10220FFF7A7FB0DA17A20CDE974
:1028400000010D4B0DA212A10120FFF79DFB08A175
:102850007B20CDE90001084B08A20DA10420FFF761
:1028600093FB00BFFEF796F86420FDF791FFF9E7B0
:1028700068656C6C6F000000982800082E2E2F43AE
:102880006F72652F5372632F6D61696E2E63000046
:102890004D41494E000000006D61696E0074657322
:1028A000745F656C6F6700000000000000000001AD
:1028B0000203040607080900000000010203046582
:1028C0006C6F675F737461727400656C6F675F73C0
:1028D000746F7000656C6F675F7365745F6F75749C
:1028E0007075745F656E61626C656400656C6F67BE
:1028F0005F7365745F746578745F636F6C6F725F2C
:10290000656E61626C656400656C6F675F736574AA
:102910005F666D7400656C6F675F7365745F666991
:102920006C74657200656C6F675F7365745F666970
:102930006C7465725F6C766C00656C6F675F736555
:10294000745F66696C7465725F7461675F6C766CE6
:1029500000656C6F675F6765745F66696C7465724C
:102960005F7461675F6C766C00656C6F675F6F7535
:1029700074707574006765745F666D745F656E6111
:10298000626C656400656C6F675F66696E645F6C3E
:10299000766C00656C6F675F66696E645F74616713
:1029A00000656C6F675F73747263707900656C6F3C
:1029B000675F6370796C6E00656C6F675F6D656DE6
:1029C00063707900412F0000442F0000452F000064
:1029D000492F0000562F0000572F000033313B32A3
:1029E000326D000033323B32326D000033333B3204
:1029F000326D000033343B32326D000033353B32F0
:102A0000326D000033363B32326D00002C2A000854
:102A1000000000204800000030150008742A00085B
:102A20004800002050090000401500080100000087
:102A300010000000000000000024F400000000006E
:102A4000C4290008CC290008D8290008D02900088A
:102A5000C8290008D4290008FC290008DC2900083E
:102A6000EC290008042A0008E4290008F4290008D9
:042A70000000000062
:040000050800019955
:00000001FF
